{
  "contractName": "FreelanceMarketplace",
  "abi": [
    {
      "inputs": [],
      "stateMutability": "nonpayable",
      "type": "constructor"
    },
    {
      "anonymous": false,
      "inputs": [
        {
          "indexed": false,
          "internalType": "uint256",
          "name": "jobId",
          "type": "uint256"
        },
        {
          "indexed": false,
          "internalType": "address",
          "name": "freelancer",
          "type": "address"
        }
      ],
      "name": "JobApplied",
      "type": "event"
    },
    {
      "anonymous": false,
      "inputs": [
        {
          "indexed": false,
          "internalType": "uint256",
          "name": "jobId",
          "type": "uint256"
        },
        {
          "indexed": false,
          "internalType": "address",
          "name": "creator",
          "type": "address"
        }
      ],
      "name": "JobApproved",
      "type": "event"
    },
    {
      "anonymous": false,
      "inputs": [
        {
          "indexed": false,
          "internalType": "uint256",
          "name": "jobId",
          "type": "uint256"
        },
        {
          "indexed": false,
          "internalType": "address",
          "name": "creator",
          "type": "address"
        },
        {
          "indexed": false,
          "internalType": "uint256",
          "name": "refundedAmount",
          "type": "uint256"
        }
      ],
      "name": "JobCancelled",
      "type": "event"
    },
    {
      "anonymous": false,
      "inputs": [
        {
          "indexed": false,
          "internalType": "uint256",
          "name": "jobId",
          "type": "uint256"
        },
        {
          "indexed": false,
          "internalType": "address",
          "name": "freelancer",
          "type": "address"
        }
      ],
      "name": "JobCompleted",
      "type": "event"
    },
    {
      "anonymous": false,
      "inputs": [
        {
          "indexed": false,
          "internalType": "uint256",
          "name": "jobId",
          "type": "uint256"
        },
        {
          "indexed": false,
          "internalType": "string",
          "name": "title",
          "type": "string"
        },
        {
          "indexed": false,
          "internalType": "uint256",
          "name": "payment",
          "type": "uint256"
        }
      ],
      "name": "JobCreated",
      "type": "event"
    },
    {
      "inputs": [
        {
          "internalType": "uint256",
          "name": "",
          "type": "uint256"
        }
      ],
      "name": "escrowBalances",
      "outputs": [
        {
          "internalType": "uint256",
          "name": "",
          "type": "uint256"
        }
      ],
      "stateMutability": "view",
      "type": "function",
      "constant": true
    },
    {
      "inputs": [
        {
          "internalType": "uint256",
          "name": "",
          "type": "uint256"
        },
        {
          "internalType": "address",
          "name": "",
          "type": "address"
        }
      ],
      "name": "jobApplications",
      "outputs": [
        {
          "internalType": "bool",
          "name": "",
          "type": "bool"
        }
      ],
      "stateMutability": "view",
      "type": "function",
      "constant": true
    },
    {
      "inputs": [
        {
          "internalType": "uint256",
          "name": "",
          "type": "uint256"
        }
      ],
      "name": "jobs",
      "outputs": [
        {
          "internalType": "string",
          "name": "title",
          "type": "string"
        },
        {
          "internalType": "string",
          "name": "description",
          "type": "string"
        },
        {
          "internalType": "uint256",
          "name": "payment",
          "type": "uint256"
        },
        {
          "internalType": "address payable",
          "name": "freelancer",
          "type": "address"
        },
        {
          "internalType": "address payable",
          "name": "creator",
          "type": "address"
        },
        {
          "internalType": "bool",
          "name": "isComplete",
          "type": "bool"
        },
        {
          "internalType": "bool",
          "name": "isApproved",
          "type": "bool"
        },
        {
          "internalType": "bool",
          "name": "isActive",
          "type": "bool"
        }
      ],
      "stateMutability": "view",
      "type": "function",
      "constant": true
    },
    {
      "inputs": [],
      "name": "owner",
      "outputs": [
        {
          "internalType": "address",
          "name": "",
          "type": "address"
        }
      ],
      "stateMutability": "view",
      "type": "function",
      "constant": true
    },
    {
      "inputs": [
        {
          "internalType": "string",
          "name": "_title",
          "type": "string"
        },
        {
          "internalType": "string",
          "name": "_description",
          "type": "string"
        }
      ],
      "name": "createJob",
      "outputs": [],
      "stateMutability": "payable",
      "type": "function",
      "payable": true
    },
    {
      "inputs": [
        {
          "internalType": "uint256",
          "name": "_jobId",
          "type": "uint256"
        }
      ],
      "name": "applyForJob",
      "outputs": [],
      "stateMutability": "nonpayable",
      "type": "function"
    },
    {
      "inputs": [
        {
          "internalType": "uint256",
          "name": "_jobId",
          "type": "uint256"
        }
      ],
      "name": "completeJob",
      "outputs": [],
      "stateMutability": "nonpayable",
      "type": "function"
    },
    {
      "inputs": [
        {
          "internalType": "uint256",
          "name": "_jobId",
          "type": "uint256"
        }
      ],
      "name": "approveJob",
      "outputs": [],
      "stateMutability": "nonpayable",
      "type": "function"
    },
    {
      "inputs": [
        {
          "internalType": "uint256",
          "name": "_jobId",
          "type": "uint256"
        }
      ],
      "name": "cancelJob",
      "outputs": [],
      "stateMutability": "nonpayable",
      "type": "function"
    },
    {
      "inputs": [],
      "name": "jobCount",
      "outputs": [
        {
          "internalType": "uint256",
          "name": "",
          "type": "uint256"
        }
      ],
      "stateMutability": "view",
      "type": "function",
      "constant": true
    },
    {
      "inputs": [
        {
          "internalType": "uint256",
          "name": "_jobId",
          "type": "uint256"
        }
      ],
      "name": "getJob",
      "outputs": [
        {
          "components": [
            {
              "internalType": "string",
              "name": "title",
              "type": "string"
            },
            {
              "internalType": "string",
              "name": "description",
              "type": "string"
            },
            {
              "internalType": "uint256",
              "name": "payment",
              "type": "uint256"
            },
            {
              "internalType": "address payable",
              "name": "freelancer",
              "type": "address"
            },
            {
              "internalType": "address payable",
              "name": "creator",
              "type": "address"
            },
            {
              "internalType": "bool",
              "name": "isComplete",
              "type": "bool"
            },
            {
              "internalType": "bool",
              "name": "isApproved",
              "type": "bool"
            },
            {
              "internalType": "bool",
              "name": "isActive",
              "type": "bool"
            }
          ],
          "internalType": "struct FreelanceMarketplace.Job",
          "name": "",
          "type": "tuple"
        }
      ],
      "stateMutability": "view",
      "type": "function",
      "constant": true
    },
    {
      "inputs": [],
      "name": "getAppliedJobs",
      "outputs": [
        {
          "internalType": "uint256[]",
          "name": "",
          "type": "uint256[]"
        }
      ],
      "stateMutability": "view",
      "type": "function",
      "constant": true
    }
  ],
  "bytecode": "0x608060405234801561001057600080fd5b5033600160006101000a81548173ffffffffffffffffffffffffffffffffffffffff021916908373ffffffffffffffffffffffffffffffffffffffff16021790555061267f806100616000396000f3fe6080604052600436106100a75760003560e01c80634c5d8a0f116100645780634c5d8a0f146101c65780638da5cb5b146101f1578063a1c0d32f1461021c578063b5f45c7a14610245578063bf22c45714610282578063e0c94ae5146102bf576100a7565b8063180aedf3146100ac5780631dffa3dc146100f05780632b1ed5811461011957806343ebf45a1461013557806348aee51e146101725780634bd23b9e1461019d575b600080fd5b3480156100b857600080fd5b506100d360048036038101906100ce91906119c7565b6102e8565b6040516100e7989796959493929190612064565b60405180910390f35b3480156100fc57600080fd5b50610117600480360381019061011291906119c7565b6104b7565b005b610133600480360381019061012e919061195b565b610796565b005b34801561014157600080fd5b5061015c600480360381019061015791906119c7565b610a1c565b60405161016991906122b2565b60405180910390f35b34801561017e57600080fd5b50610187610a34565b6040516101949190612027565b60405180910390f35b3480156101a957600080fd5b506101c460048036038101906101bf91906119c7565b610c9e565b005b3480156101d257600080fd5b506101db610f5e565b6040516101e891906122b2565b60405180910390f35b3480156101fd57600080fd5b50610206610f6a565b604051610213919061200c565b60405180910390f35b34801561022857600080fd5b50610243600480360381019061023e91906119c7565b610f90565b005b34801561025157600080fd5b5061026c600480360381019061026791906119f0565b611162565b6040516102799190612049565b60405180910390f35b34801561028e57600080fd5b506102a960048036038101906102a491906119c7565b611191565b6040516102b69190612290565b60405180910390f35b3480156102cb57600080fd5b506102e660048036038101906102e191906119c7565b611466565b005b600081815481106102f857600080fd5b906000526020600020906005020160009150905080600001805461031b90612502565b80601f016020809104026020016040519081016040528092919081815260200182805461034790612502565b80156103945780601f1061036957610100808354040283529160200191610394565b820191906000526020600020905b81548152906001019060200180831161037757829003601f168201915b5050505050908060010180546103a990612502565b80601f01602080910402602001604051908101604052809291908181526020018280546103d590612502565b80156104225780601f106103f757610100808354040283529160200191610422565b820191906000526020600020905b81548152906001019060200180831161040557829003601f168201915b5050505050908060020154908060030160009054906101000a900473ffffffffffffffffffffffffffffffffffffffff16908060040160009054906101000a900473ffffffffffffffffffffffffffffffffffffffff16908060040160149054906101000a900460ff16908060040160159054906101000a900460ff16908060040160169054906101000a900460ff16905088565b80600081815481106104f2577f4e487b7100000000000000000000000000000000000000000000000000000000600052603260045260246000fd5b906000526020600020906005020160040160009054906101000a900473ffffffffffffffffffffffffffffffffffffffff1673ffffffffffffffffffffffffffffffffffffffff163373ffffffffffffffffffffffffffffffffffffffff1614610591576040517f08c379a000000000000000000000000000000000000000000000000000000000815260040161058890612130565b60405180910390fd5b60008083815481106105cc577f4e487b7100000000000000000000000000000000000000000000000000000000600052603260045260246000fd5b906000526020600020906005020190508060040160169054906101000a900460ff1661062d576040517f08c379a000000000000000000000000000000000000000000000000000000000815260040161062490612170565b60405180910390fd5b600073ffffffffffffffffffffffffffffffffffffffff168160030160009054906101000a900473ffffffffffffffffffffffffffffffffffffffff1673ffffffffffffffffffffffffffffffffffffffff16146106c0576040517f08c379a00000000000000000000000000000000000000000000000000000000081526004016106b7906121d0565b60405180910390fd5b60008160040160166101000a81548160ff021916908315150217905550600060026000858152602001908152602001600020549050600060026000868152602001908152602001600020819055503373ffffffffffffffffffffffffffffffffffffffff166108fc829081150290604051600060405180830381858888f19350505050158015610754573d6000803e3d6000fd5b507fa80c76c474b34cc7af71dec63d733b959fff08f4eb0789e288be5db6b608f942843383604051610788939291906122f6565b60405180910390a150505050565b600034116107d9576040517f08c379a00000000000000000000000000000000000000000000000000000000081526004016107d090612110565b60405180910390fd5b6000604051806101000160405280848152602001838152602001348152602001600073ffffffffffffffffffffffffffffffffffffffff1681526020013373ffffffffffffffffffffffffffffffffffffffff168152602001600015158152602001600015158152602001600115158152509050600081908060018154018082558091505060019003906000526020600020906005020160009091909190915060008201518160000190805190602001906108959291906117af565b5060208201518160010190805190602001906108b29291906117af565b506040820151816002015560608201518160030160006101000a81548173ffffffffffffffffffffffffffffffffffffffff021916908373ffffffffffffffffffffffffffffffffffffffff16021790555060808201518160040160006101000a81548173ffffffffffffffffffffffffffffffffffffffff021916908373ffffffffffffffffffffffffffffffffffffffff16021790555060a08201518160040160146101000a81548160ff02191690831515021790555060c08201518160040160156101000a81548160ff02191690831515021790555060e08201518160040160166101000a81548160ff0219169083151502179055505050600060016000805490506109c19190612432565b90503460026000838152602001908152602001600020819055507f3dee1355894338f74293714b178f468bd5d435a12c22fef70a5b56c528957d41818534604051610a0e9392919061232d565b60405180910390a150505050565b60026020528060005260406000206000915090505481565b60606000808080549050905060005b81811015610b0c573373ffffffffffffffffffffffffffffffffffffffff1660008281548110610a9c577f4e487b7100000000000000000000000000000000000000000000000000000000600052603260045260246000fd5b906000526020600020906005020160030160009054906101000a900473ffffffffffffffffffffffffffffffffffffffff1673ffffffffffffffffffffffffffffffffffffffff161415610af9578280610af590612534565b9350505b8080610b0490612534565b915050610a43565b5060008267ffffffffffffffff811115610b4f577f4e487b7100000000000000000000000000000000000000000000000000000000600052604160045260246000fd5b604051908082528060200260200182016040528015610b7d5781602001602082028036833780820191505090505b5090506000805b83811015610c93573373ffffffffffffffffffffffffffffffffffffffff1660008281548110610bdd577f4e487b7100000000000000000000000000000000000000000000000000000000600052603260045260246000fd5b906000526020600020906005020160030160009054906101000a900473ffffffffffffffffffffffffffffffffffffffff1673ffffffffffffffffffffffffffffffffffffffff161415610c805780838381518110610c65577f4e487b7100000000000000000000000000000000000000000000000000000000600052603260045260246000fd5b6020026020010181815250508180610c7c90612534565b9250505b8080610c8b90612534565b915050610b84565b508194505050505090565b8060008181548110610cd9577f4e487b7100000000000000000000000000000000000000000000000000000000600052603260045260246000fd5b906000526020600020906005020160040160009054906101000a900473ffffffffffffffffffffffffffffffffffffffff1673ffffffffffffffffffffffffffffffffffffffff163373ffffffffffffffffffffffffffffffffffffffff1614610d78576040517f08c379a0000000000000000000000000000000000000000000000000000000008152600401610d6f90612130565b60405180910390fd5b6000808381548110610db3577f4e487b7100000000000000000000000000000000000000000000000000000000600052603260045260246000fd5b906000526020600020906005020190508060040160149054906101000a900460ff16610e14576040517f08c379a0000000000000000000000000000000000000000000000000000000008152600401610e0b90612270565b60405180910390fd5b8060040160159054906101000a900460ff1615610e66576040517f08c379a0000000000000000000000000000000000000000000000000000000008152600401610e5d90612250565b60405180910390fd5b60018160040160156101000a81548160ff021916908315150217905550600060026000858152602001908152602001600020549050600060026000868152602001908152602001600020819055508160030160009054906101000a900473ffffffffffffffffffffffffffffffffffffffff1673ffffffffffffffffffffffffffffffffffffffff166108fc829081150290604051600060405180830381858888f19350505050158015610f1e573d6000803e3d6000fd5b507f672bfedacbff1d20ad166b512468e3a6471d444eb51c81a4b7168a8232481e608433604051610f509291906122cd565b60405180910390a150505050565b60008080549050905090565b600160009054906101000a900473ffffffffffffffffffffffffffffffffffffffff1681565b8060008181548110610fcb577f4e487b7100000000000000000000000000000000000000000000000000000000600052603260045260246000fd5b906000526020600020906005020160030160009054906101000a900473ffffffffffffffffffffffffffffffffffffffff1673ffffffffffffffffffffffffffffffffffffffff163373ffffffffffffffffffffffffffffffffffffffff161461106a576040517f08c379a0000000000000000000000000000000000000000000000000000000008152600401611061906120f0565b60405180910390fd5b60008083815481106110a5577f4e487b7100000000000000000000000000000000000000000000000000000000600052603260045260246000fd5b906000526020600020906005020190508060040160149054906101000a900460ff1615611107576040517f08c379a00000000000000000000000000000000000000000000000000000000081526004016110fe90612190565b60405180910390fd5b60018160040160146101000a81548160ff0219169083151502179055507f16a7286196330eaff0c7db2ec34ead9c6d2d023b356b62ee7ea644c842a84b6783336040516111559291906122cd565b60405180910390a1505050565b60036020528160005260406000206020528060005260406000206000915091509054906101000a900460ff1681565b611199611835565b60008054905082106111e0576040517f08c379a00000000000000000000000000000000000000000000000000000000081526004016111d7906121b0565b60405180910390fd5b6000828154811061121a577f4e487b7100000000000000000000000000000000000000000000000000000000600052603260045260246000fd5b90600052602060002090600502016040518061010001604052908160008201805461124490612502565b80601f016020809104026020016040519081016040528092919081815260200182805461127090612502565b80156112bd5780601f10611292576101008083540402835291602001916112bd565b820191906000526020600020905b8154815290600101906020018083116112a057829003601f168201915b505050505081526020016001820180546112d690612502565b80601f016020809104026020016040519081016040528092919081815260200182805461130290612502565b801561134f5780601f106113245761010080835404028352916020019161134f565b820191906000526020600020905b81548152906001019060200180831161133257829003601f168201915b50505050508152602001600282015481526020016003820160009054906101000a900473ffffffffffffffffffffffffffffffffffffffff1673ffffffffffffffffffffffffffffffffffffffff1673ffffffffffffffffffffffffffffffffffffffff1681526020016004820160009054906101000a900473ffffffffffffffffffffffffffffffffffffffff1673ffffffffffffffffffffffffffffffffffffffff1673ffffffffffffffffffffffffffffffffffffffff1681526020016004820160149054906101000a900460ff161515151581526020016004820160159054906101000a900460ff161515151581526020016004820160169054906101000a900460ff1615151515815250509050919050565b60008082815481106114a1577f4e487b7100000000000000000000000000000000000000000000000000000000600052603260045260246000fd5b906000526020600020906005020190508060040160169054906101000a900460ff16611502576040517f08c379a00000000000000000000000000000000000000000000000000000000081526004016114f9906121f0565b60405180910390fd5b600073ffffffffffffffffffffffffffffffffffffffff168160030160009054906101000a900473ffffffffffffffffffffffffffffffffffffffff1673ffffffffffffffffffffffffffffffffffffffff1614611595576040517f08c379a000000000000000000000000000000000000000000000000000000000815260040161158c90612150565b60405180910390fd5b8060040160009054906101000a900473ffffffffffffffffffffffffffffffffffffffff1673ffffffffffffffffffffffffffffffffffffffff163373ffffffffffffffffffffffffffffffffffffffff161415611628576040517f08c379a000000000000000000000000000000000000000000000000000000000815260040161161f90612230565b60405180910390fd5b6003600083815260200190815260200160002060003373ffffffffffffffffffffffffffffffffffffffff1673ffffffffffffffffffffffffffffffffffffffff16815260200190815260200160002060009054906101000a900460ff16156116c6576040517f08c379a00000000000000000000000000000000000000000000000000000000081526004016116bd90612210565b60405180910390fd5b338160030160006101000a81548173ffffffffffffffffffffffffffffffffffffffff021916908373ffffffffffffffffffffffffffffffffffffffff16021790555060016003600084815260200190815260200160002060003373ffffffffffffffffffffffffffffffffffffffff1673ffffffffffffffffffffffffffffffffffffffff16815260200190815260200160002060006101000a81548160ff0219169083151502179055507fffa837d183240a5f25cbd643a8eade702c0c9c3e186c59c7d929e4f1a3438d8682336040516117a39291906122cd565b60405180910390a15050565b8280546117bb90612502565b90600052602060002090601f0160209004810192826117dd5760008555611824565b82601f106117f657805160ff1916838001178555611824565b82800160010185558215611824579182015b82811115611823578251825591602001919060010190611808565b5b50905061183191906118ac565b5090565b604051806101000160405280606081526020016060815260200160008152602001600073ffffffffffffffffffffffffffffffffffffffff168152602001600073ffffffffffffffffffffffffffffffffffffffff1681526020016000151581526020016000151581526020016000151581525090565b5b808211156118c55760008160009055506001016118ad565b5090565b60006118dc6118d78461239c565b61236b565b9050828152602081018484840111156118f457600080fd5b6118ff8482856124c0565b509392505050565b6000813590506119168161261b565b92915050565b600082601f83011261192d57600080fd5b813561193d8482602086016118c9565b91505092915050565b60008135905061195581612632565b92915050565b6000806040838503121561196e57600080fd5b600083013567ffffffffffffffff81111561198857600080fd5b6119948582860161191c565b925050602083013567ffffffffffffffff8111156119b157600080fd5b6119bd8582860161191c565b9150509250929050565b6000602082840312156119d957600080fd5b60006119e784828501611946565b91505092915050565b60008060408385031215611a0357600080fd5b6000611a1185828601611946565b9250506020611a2285828601611907565b9150509250929050565b6000611a388383611fee565b60208301905092915050565b611a4d81612478565b82525050565b611a5c81612478565b82525050565b611a6b81612466565b82525050565b6000611a7c826123dc565b611a8681856123ff565b9350611a91836123cc565b8060005b83811015611ac2578151611aa98882611a2c565b9750611ab4836123f2565b925050600181019050611a95565b5085935050505092915050565b611ad88161248a565b82525050565b611ae78161248a565b82525050565b6000611af8826123e7565b611b028185612410565b9350611b128185602086016124cf565b611b1b8161260a565b840191505092915050565b6000611b31826123e7565b611b3b8185612421565b9350611b4b8185602086016124cf565b611b548161260a565b840191505092915050565b6000611b6c602f83612421565b91507f4f6e6c792061737369676e656420667265656c616e6365722063616e2063616c60008301527f6c20746869732066756e6374696f6e00000000000000000000000000000000006020830152604082019050919050565b6000611bd2601e83612421565b91507f5061796d656e74206d7573742062652067726561746572207468616e203000006000830152602082019050919050565b6000611c12602b83612421565b91507f4f6e6c7920746865206a6f622063726561746f722063616e2063616c6c20746860008301527f69732066756e6374696f6e0000000000000000000000000000000000000000006020830152604082019050919050565b6000611c78601183612421565b91507f4a6f6220616c72656164792074616b656e0000000000000000000000000000006000830152602082019050919050565b6000611cb8601183612421565b91507f4a6f62206973206e6f74206163746976650000000000000000000000000000006000830152602082019050919050565b6000611cf8601583612421565b91507f4a6f6220616c726561647920636f6d706c6574656400000000000000000000006000830152602082019050919050565b6000611d38601583612421565b91507f4a6f6220494420646f6573206e6f7420657869737400000000000000000000006000830152602082019050919050565b6000611d78602a83612421565b91507f43616e6e6f742063616e63656c206a6f6220776974682061737369676e65642060008301527f667265656c616e636572000000000000000000000000000000000000000000006020830152604082019050919050565b6000611dde601783612421565b91507f4a6f62206973206e6f206c6f6e676572206163746976650000000000000000006000830152602082019050919050565b6000611e1e601c83612421565b91507f416c7265616479206170706c69656420666f722074686973206a6f62000000006000830152602082019050919050565b6000611e5e602683612421565b91507f43726561746f722063616e6e6f74206170706c7920666f72207468656972206f60008301527f776e206a6f6200000000000000000000000000000000000000000000000000006020830152604082019050919050565b6000611ec4601483612421565b91507f4a6f6220616c726561647920617070726f7665640000000000000000000000006000830152602082019050919050565b6000611f04601783612421565b91507f4a6f62206973206e6f742079657420636f6d706c6574650000000000000000006000830152602082019050919050565b6000610100830160008301518482036000860152611f558282611aed565b91505060208301518482036020860152611f6f8282611aed565b9150506040830151611f846040860182611fee565b506060830151611f976060860182611a44565b506080830151611faa6080860182611a44565b5060a0830151611fbd60a0860182611acf565b5060c0830151611fd060c0860182611acf565b5060e0830151611fe360e0860182611acf565b508091505092915050565b611ff7816124b6565b82525050565b612006816124b6565b82525050565b60006020820190506120216000830184611a62565b92915050565b600060208201905081810360008301526120418184611a71565b905092915050565b600060208201905061205e6000830184611ade565b92915050565b600061010082019050818103600083015261207f818b611b26565b90508181036020830152612093818a611b26565b90506120a26040830189611ffd565b6120af6060830188611a53565b6120bc6080830187611a53565b6120c960a0830186611ade565b6120d660c0830185611ade565b6120e360e0830184611ade565b9998505050505050505050565b6000602082019050818103600083015261210981611b5f565b9050919050565b6000602082019050818103600083015261212981611bc5565b9050919050565b6000602082019050818103600083015261214981611c05565b9050919050565b6000602082019050818103600083015261216981611c6b565b9050919050565b6000602082019050818103600083015261218981611cab565b9050919050565b600060208201905081810360008301526121a981611ceb565b9050919050565b600060208201905081810360008301526121c981611d2b565b9050919050565b600060208201905081810360008301526121e981611d6b565b9050919050565b6000602082019050818103600083015261220981611dd1565b9050919050565b6000602082019050818103600083015261222981611e11565b9050919050565b6000602082019050818103600083015261224981611e51565b9050919050565b6000602082019050818103600083015261226981611eb7565b9050919050565b6000602082019050818103600083015261228981611ef7565b9050919050565b600060208201905081810360008301526122aa8184611f37565b905092915050565b60006020820190506122c76000830184611ffd565b92915050565b60006040820190506122e26000830185611ffd565b6122ef6020830184611a62565b9392505050565b600060608201905061230b6000830186611ffd565b6123186020830185611a62565b6123256040830184611ffd565b949350505050565b60006060820190506123426000830186611ffd565b81810360208301526123548185611b26565b90506123636040830184611ffd565b949350505050565b6000604051905081810181811067ffffffffffffffff82111715612392576123916125db565b5b8060405250919050565b600067ffffffffffffffff8211156123b7576123b66125db565b5b601f19601f8301169050602081019050919050565b6000819050602082019050919050565b600081519050919050565b600081519050919050565b6000602082019050919050565b600082825260208201905092915050565b600082825260208201905092915050565b600082825260208201905092915050565b600061243d826124b6565b9150612448836124b6565b92508282101561245b5761245a61257d565b5b828203905092915050565b600061247182612496565b9050919050565b600061248382612496565b9050919050565b60008115159050919050565b600073ffffffffffffffffffffffffffffffffffffffff82169050919050565b6000819050919050565b82818337600083830152505050565b60005b838110156124ed5780820151818401526020810190506124d2565b838111156124fc576000848401525b50505050565b6000600282049050600182168061251a57607f821691505b6020821081141561252e5761252d6125ac565b5b50919050565b600061253f826124b6565b91507fffffffffffffffffffffffffffffffffffffffffffffffffffffffffffffffff8214156125725761257161257d565b5b600182019050919050565b7f4e487b7100000000000000000000000000000000000000000000000000000000600052601160045260246000fd5b7f4e487b7100000000000000000000000000000000000000000000000000000000600052602260045260246000fd5b7f4e487b7100000000000000000000000000000000000000000000000000000000600052604160045260246000fd5b6000601f19601f8301169050919050565b61262481612466565b811461262f57600080fd5b50565b61263b816124b6565b811461264657600080fd5b5056fea264697066735822122012226f4afaca2e780baeb23bbad9c5f134c7750ec14ef7e86d82271a2c03795164736f6c63430008000033",
  "immutableReferences": {},
  "source": "// SPDX-License-Identifier: MIT\npragma solidity ^0.8.0;\n\ncontract FreelanceMarketplace {\n    struct Job {\n        string title;\n        string description;\n        uint256 payment;\n        address payable freelancer;\n        address payable creator;\n        bool isComplete;\n        bool isApproved;\n        bool isActive; // Track if the job is still active\n    }\n\n    Job[] public jobs;\n    address public owner;\n    mapping(uint256 => uint256) public escrowBalances; // Track escrow balances for each job\n    mapping(uint256 => mapping(address => bool)) public jobApplications; // Track job applications\n\n    constructor() {\n        owner = msg.sender;\n    }\n\n    event JobCreated(uint256 jobId, string title, uint256 payment);\n    event JobApplied(uint256 jobId, address freelancer);\n    event JobCompleted(uint256 jobId, address freelancer);\n    event JobApproved(uint256 jobId, address creator);\n    event JobCancelled(uint256 jobId, address creator, uint256 refundedAmount); // New event for job cancellation\n\n    modifier onlyOwner() {\n        require(msg.sender == owner, \"Only owner can call this function\");\n        _;\n    }\n\n    modifier onlyCreator(uint256 _jobId) {\n        require(msg.sender == jobs[_jobId].creator, \"Only the job creator can call this function\");\n        _;\n    }\n\n    modifier onlyFreelancer(uint256 _jobId) {\n        require(msg.sender == jobs[_jobId].freelancer, \"Only assigned freelancer can call this function\");\n        _;\n    }\n\n    function createJob(string memory _title, string memory _description) public payable {\n        require(msg.value > 0, \"Payment must be greater than 0\");\n        \n        Job memory newJob = Job({\n            title: _title,\n            description: _description,\n            payment: msg.value,\n            freelancer: payable(address(0)),\n            creator: payable(msg.sender),\n            isComplete: false,\n            isApproved: false,\n            isActive: true\n        });\n\n        jobs.push(newJob);\n        uint256 jobId = jobs.length - 1;\n        escrowBalances[jobId] = msg.value; // Store payment in escrow\n        \n        emit JobCreated(jobId, _title, msg.value);\n    }\n\n    function applyForJob(uint256 _jobId) public {\n        Job storage job = jobs[_jobId];\n        \n        require(job.isActive, \"Job is no longer active\");\n        require(job.freelancer == address(0), \"Job already taken\");\n        require(msg.sender != job.creator, \"Creator cannot apply for their own job\");\n        require(!jobApplications[_jobId][msg.sender], \"Already applied for this job\");\n\n        job.freelancer = payable(msg.sender); // Assign freelancer to the job\n        jobApplications[_jobId][msg.sender] = true; // Mark as applied\n        emit JobApplied(_jobId, msg.sender);\n    }\n\n    function completeJob(uint256 _jobId) public onlyFreelancer(_jobId) {\n        Job storage job = jobs[_jobId];\n        require(!job.isComplete, \"Job already completed\");\n\n        job.isComplete = true;\n        emit JobCompleted(_jobId, msg.sender);\n    }\n\n    function approveJob(uint256 _jobId) public onlyCreator(_jobId) {\n        Job storage job = jobs[_jobId];\n        require(job.isComplete, \"Job is not yet complete\");\n        require(!job.isApproved, \"Job already approved\");\n\n        job.isApproved = true;\n        uint256 payment = escrowBalances[_jobId];\n        escrowBalances[_jobId] = 0;\n        job.freelancer.transfer(payment); // Transfer payment from escrow to freelancer\n        emit JobApproved(_jobId, msg.sender);\n    }\n\n    function cancelJob(uint256 _jobId) public onlyCreator(_jobId) {\n        Job storage job = jobs[_jobId];\n        require(job.isActive, \"Job is not active\");\n        require(job.freelancer == address(0), \"Cannot cancel job with assigned freelancer\");\n\n        job.isActive = false;\n        uint256 payment = escrowBalances[_jobId];\n        escrowBalances[_jobId] = 0;\n        payable(msg.sender).transfer(payment); // Return payment from escrow to creator\n        emit JobCancelled(_jobId, msg.sender, payment); // Emit cancellation event\n    }\n\n    function jobCount() public view returns (uint256) {\n        return jobs.length;\n    }\n\n    function getJob(uint256 _jobId) public view returns (Job memory) {\n    require(_jobId < jobs.length, \"Job ID does not exist\"); // Ensure job ID is valid\n    return jobs[_jobId]; // Return the existing job directly\n}\n    function getAppliedJobs() public view returns (uint256[] memory) {\n        uint256 appliedJobCount = 0;\n        uint256 totalJobs = jobs.length;\n\n        for (uint256 i = 0; i < totalJobs; i++) {\n            if (jobs[i].freelancer == msg.sender) {\n                appliedJobCount++;\n            }\n        }\n\n        uint256[] memory appliedJobIDs = new uint256[](appliedJobCount);\n        uint256 index = 0;\n\n        for (uint256 i = 0; i < totalJobs; i++) {\n            if (jobs[i].freelancer == msg.sender) {\n                appliedJobIDs[index] = i;\n                index++;\n            }\n        }\n\n        return appliedJobIDs;\n    }\n}\n",
  "sourcePath": "/home/asad/Desktop/Crypto-Freelance-MarketPlace/contracts/FreelanceMarketplace.sol",
  "compiler": {
    "name": "solc",
    "version": "0.8.0+commit.c7dfd78e.Emscripten.clang"
  },
  "schemaVersion": "3.4.16",
  "updatedAt": "2024-10-15T15:26:06.686Z",
  "networkType": "ethereum",
  "devdoc": {
    "kind": "dev",
    "methods": {},
    "version": 1
  },
  "userdoc": {
    "kind": "user",
    "methods": {},
    "version": 1
  }
}