{
  "contractName": "FreelanceMarketplace",
  "abi": [
    {
      "inputs": [],
      "stateMutability": "nonpayable",
      "type": "constructor"
    },
    {
      "anonymous": false,
      "inputs": [
        {
          "indexed": false,
          "internalType": "uint256",
          "name": "jobId",
          "type": "uint256"
        },
        {
          "indexed": false,
          "internalType": "address",
          "name": "freelancer",
          "type": "address"
        }
      ],
      "name": "JobApplied",
      "type": "event"
    },
    {
      "anonymous": false,
      "inputs": [
        {
          "indexed": false,
          "internalType": "uint256",
          "name": "jobId",
          "type": "uint256"
        },
        {
          "indexed": false,
          "internalType": "address",
          "name": "freelancer",
          "type": "address"
        }
      ],
      "name": "JobCompleted",
      "type": "event"
    },
    {
      "anonymous": false,
      "inputs": [
        {
          "indexed": false,
          "internalType": "uint256",
          "name": "jobId",
          "type": "uint256"
        },
        {
          "indexed": false,
          "internalType": "string",
          "name": "title",
          "type": "string"
        },
        {
          "indexed": false,
          "internalType": "uint256",
          "name": "payment",
          "type": "uint256"
        }
      ],
      "name": "JobCreated",
      "type": "event"
    },
    {
      "inputs": [
        {
          "internalType": "uint256",
          "name": "",
          "type": "uint256"
        }
      ],
      "name": "jobs",
      "outputs": [
        {
          "internalType": "string",
          "name": "title",
          "type": "string"
        },
        {
          "internalType": "string",
          "name": "description",
          "type": "string"
        },
        {
          "internalType": "uint256",
          "name": "payment",
          "type": "uint256"
        },
        {
          "internalType": "address payable",
          "name": "freelancer",
          "type": "address"
        },
        {
          "internalType": "bool",
          "name": "isComplete",
          "type": "bool"
        }
      ],
      "stateMutability": "view",
      "type": "function",
      "constant": true
    },
    {
      "inputs": [],
      "name": "owner",
      "outputs": [
        {
          "internalType": "address",
          "name": "",
          "type": "address"
        }
      ],
      "stateMutability": "view",
      "type": "function",
      "constant": true
    },
    {
      "inputs": [
        {
          "internalType": "string",
          "name": "_title",
          "type": "string"
        },
        {
          "internalType": "string",
          "name": "_description",
          "type": "string"
        },
        {
          "internalType": "uint256",
          "name": "_payment",
          "type": "uint256"
        }
      ],
      "name": "createJob",
      "outputs": [],
      "stateMutability": "nonpayable",
      "type": "function"
    },
    {
      "inputs": [
        {
          "internalType": "uint256",
          "name": "_jobId",
          "type": "uint256"
        }
      ],
      "name": "applyForJob",
      "outputs": [],
      "stateMutability": "payable",
      "type": "function",
      "payable": true
    },
    {
      "inputs": [
        {
          "internalType": "uint256",
          "name": "_jobId",
          "type": "uint256"
        }
      ],
      "name": "completeJob",
      "outputs": [],
      "stateMutability": "nonpayable",
      "type": "function"
    },
    {
      "inputs": [],
      "name": "jobCount",
      "outputs": [
        {
          "internalType": "uint256",
          "name": "",
          "type": "uint256"
        }
      ],
      "stateMutability": "view",
      "type": "function",
      "constant": true
    },
    {
      "inputs": [
        {
          "internalType": "uint256",
          "name": "_jobId",
          "type": "uint256"
        }
      ],
      "name": "getJob",
      "outputs": [
        {
          "internalType": "string",
          "name": "",
          "type": "string"
        },
        {
          "internalType": "string",
          "name": "",
          "type": "string"
        },
        {
          "internalType": "uint256",
          "name": "",
          "type": "uint256"
        },
        {
          "internalType": "address",
          "name": "",
          "type": "address"
        },
        {
          "internalType": "bool",
          "name": "",
          "type": "bool"
        }
      ],
      "stateMutability": "view",
      "type": "function",
      "constant": true
    }
  ],
  "bytecode": "0x608060405234801561001057600080fd5b5033600160006101000a81548173ffffffffffffffffffffffffffffffffffffffff021916908373ffffffffffffffffffffffffffffffffffffffff160217905550611368806100616000396000f3fe6080604052600436106100705760003560e01c80638da5cb5b1161004e5780638da5cb5b1461010a578063a1c0d32f14610135578063bf22c4571461015e578063e0c94ae51461019f57610070565b8063180aedf3146100755780634c5d8a0f146100b657806373a06f42146100e1575b600080fd5b34801561008157600080fd5b5061009c60048036038101906100979190610cd5565b6101bb565b6040516100ad959493929190610f1a565b60405180910390f35b3480156100c257600080fd5b506100cb61033e565b6040516100d8919061107c565b60405180910390f35b3480156100ed57600080fd5b5061010860048036038101906101039190610c56565b61034a565b005b34801561011657600080fd5b5061011f61054a565b60405161012c9190610eff565b60405180910390f35b34801561014157600080fd5b5061015c60048036038101906101579190610cd5565b610570565b005b34801561016a57600080fd5b5061018560048036038101906101809190610cd5565b610768565b604051610196959493929190610f7b565b60405180910390f35b6101b960048036038101906101b49190610cd5565b610992565b005b600081815481106101cb57600080fd5b90600052602060002090600402016000915090508060000180546101ee9061124b565b80601f016020809104026020016040519081016040528092919081815260200182805461021a9061124b565b80156102675780601f1061023c57610100808354040283529160200191610267565b820191906000526020600020905b81548152906001019060200180831161024a57829003601f168201915b50505050509080600101805461027c9061124b565b80601f01602080910402602001604051908101604052809291908181526020018280546102a89061124b565b80156102f55780601f106102ca576101008083540402835291602001916102f5565b820191906000526020600020905b8154815290600101906020018083116102d857829003601f168201915b5050505050908060020154908060030160009054906101000a900473ffffffffffffffffffffffffffffffffffffffff16908060030160149054906101000a900460ff16905085565b60008080549050905090565b600160009054906101000a900473ffffffffffffffffffffffffffffffffffffffff1673ffffffffffffffffffffffffffffffffffffffff163373ffffffffffffffffffffffffffffffffffffffff16146103da576040517f08c379a00000000000000000000000000000000000000000000000000000000081526004016103d190610fdc565b60405180910390fd5b60006040518060a00160405280858152602001848152602001838152602001600073ffffffffffffffffffffffffffffffffffffffff16815260200160001515815250905060008190806001815401808255809150506001900390600052602060002090600402016000909190919091506000820151816000019080519060200190610467929190610b36565b506020820151816001019080519060200190610484929190610b36565b506040820151816002015560608201518160030160006101000a81548173ffffffffffffffffffffffffffffffffffffffff021916908373ffffffffffffffffffffffffffffffffffffffff16021790555060808201518160030160146101000a81548160ff02191690831515021790555050507f3dee1355894338f74293714b178f468bd5d435a12c22fef70a5b56c528957d41600160008054905061052b919061117b565b858460405161053c939291906110c0565b60405180910390a150505050565b600160009054906101000a900473ffffffffffffffffffffffffffffffffffffffff1681565b60008082815481106105ab577f4e487b7100000000000000000000000000000000000000000000000000000000600052603260045260246000fd5b906000526020600020906004020190503373ffffffffffffffffffffffffffffffffffffffff168160030160009054906101000a900473ffffffffffffffffffffffffffffffffffffffff1673ffffffffffffffffffffffffffffffffffffffff161461064d576040517f08c379a00000000000000000000000000000000000000000000000000000000081526004016106449061105c565b60405180910390fd5b8060030160149054906101000a900460ff161561069f576040517f08c379a00000000000000000000000000000000000000000000000000000000081526004016106969061103c565b60405180910390fd5b60018160030160146101000a81548160ff0219169083151502179055508060030160009054906101000a900473ffffffffffffffffffffffffffffffffffffffff1673ffffffffffffffffffffffffffffffffffffffff166108fc82600201549081150290604051600060405180830381858888f1935050505015801561072a573d6000803e3d6000fd5b507f16a7286196330eaff0c7db2ec34ead9c6d2d023b356b62ee7ea644c842a84b67823360405161075c929190611097565b60405180910390a15050565b606080600080600080600087815481106107ab577f4e487b7100000000000000000000000000000000000000000000000000000000600052603260045260246000fd5b90600052602060002090600402016040518060a00160405290816000820180546107d49061124b565b80601f01602080910402602001604051908101604052809291908181526020018280546108009061124b565b801561084d5780601f106108225761010080835404028352916020019161084d565b820191906000526020600020905b81548152906001019060200180831161083057829003601f168201915b505050505081526020016001820180546108669061124b565b80601f01602080910402602001604051908101604052809291908181526020018280546108929061124b565b80156108df5780601f106108b4576101008083540402835291602001916108df565b820191906000526020600020905b8154815290600101906020018083116108c257829003601f168201915b50505050508152602001600282015481526020016003820160009054906101000a900473ffffffffffffffffffffffffffffffffffffffff1673ffffffffffffffffffffffffffffffffffffffff1673ffffffffffffffffffffffffffffffffffffffff1681526020016003820160149054906101000a900460ff161515151581525050905080600001518160200151826040015183606001518460800151955095509550955095505091939590929450565b60008082815481106109cd577f4e487b7100000000000000000000000000000000000000000000000000000000600052603260045260246000fd5b90600052602060002090600402019050600073ffffffffffffffffffffffffffffffffffffffff168160030160009054906101000a900473ffffffffffffffffffffffffffffffffffffffff1673ffffffffffffffffffffffffffffffffffffffff1614610a70576040517f08c379a0000000000000000000000000000000000000000000000000000000008152600401610a679061101c565b60405180910390fd5b80600201543414610ab6576040517f08c379a0000000000000000000000000000000000000000000000000000000008152600401610aad90610ffc565b60405180910390fd5b338160030160006101000a81548173ffffffffffffffffffffffffffffffffffffffff021916908373ffffffffffffffffffffffffffffffffffffffff1602179055507fffa837d183240a5f25cbd643a8eade702c0c9c3e186c59c7d929e4f1a3438d868233604051610b2a929190611097565b60405180910390a15050565b828054610b429061124b565b90600052602060002090601f016020900481019282610b645760008555610bab565b82601f10610b7d57805160ff1916838001178555610bab565b82800160010185558215610bab579182015b82811115610baa578251825591602001919060010190610b8f565b5b509050610bb89190610bbc565b5090565b5b80821115610bd5576000816000905550600101610bbd565b5090565b6000610bec610be78461112f565b6110fe565b905082815260208101848484011115610c0457600080fd5b610c0f848285611209565b509392505050565b600082601f830112610c2857600080fd5b8135610c38848260208601610bd9565b91505092915050565b600081359050610c508161131b565b92915050565b600080600060608486031215610c6b57600080fd5b600084013567ffffffffffffffff811115610c8557600080fd5b610c9186828701610c17565b935050602084013567ffffffffffffffff811115610cae57600080fd5b610cba86828701610c17565b9250506040610ccb86828701610c41565b9150509250925092565b600060208284031215610ce757600080fd5b6000610cf584828501610c41565b91505092915050565b610d07816111c1565b82525050565b610d16816111af565b82525050565b610d25816111d3565b82525050565b6000610d368261115f565b610d40818561116a565b9350610d50818560208601611218565b610d598161130a565b840191505092915050565b6000610d7160218361116a565b91507f4f6e6c79206f776e65722063616e2063616c6c20746869732066756e6374696f60008301527f6e000000000000000000000000000000000000000000000000000000000000006020830152604082019050919050565b6000610dd760188361116a565b91507f496e636f7272656374207061796d656e7420616d6f756e7400000000000000006000830152602082019050919050565b6000610e1760118361116a565b91507f4a6f6220616c72656164792074616b656e0000000000000000000000000000006000830152602082019050919050565b6000610e5760158361116a565b91507f4a6f6220616c726561647920636f6d706c6574656400000000000000000000006000830152602082019050919050565b6000610e97602e8361116a565b91507f4f6e6c792061737369676e656420667265656c616e6365722063616e20636f6d60008301527f706c6574652074686973206a6f620000000000000000000000000000000000006020830152604082019050919050565b610ef9816111ff565b82525050565b6000602082019050610f146000830184610d0d565b92915050565b600060a0820190508181036000830152610f348188610d2b565b90508181036020830152610f488187610d2b565b9050610f576040830186610ef0565b610f646060830185610cfe565b610f716080830184610d1c565b9695505050505050565b600060a0820190508181036000830152610f958188610d2b565b90508181036020830152610fa98187610d2b565b9050610fb86040830186610ef0565b610fc56060830185610d0d565b610fd26080830184610d1c565b9695505050505050565b60006020820190508181036000830152610ff581610d64565b9050919050565b6000602082019050818103600083015261101581610dca565b9050919050565b6000602082019050818103600083015261103581610e0a565b9050919050565b6000602082019050818103600083015261105581610e4a565b9050919050565b6000602082019050818103600083015261107581610e8a565b9050919050565b60006020820190506110916000830184610ef0565b92915050565b60006040820190506110ac6000830185610ef0565b6110b96020830184610d0d565b9392505050565b60006060820190506110d56000830186610ef0565b81810360208301526110e78185610d2b565b90506110f66040830184610ef0565b949350505050565b6000604051905081810181811067ffffffffffffffff82111715611125576111246112db565b5b8060405250919050565b600067ffffffffffffffff82111561114a576111496112db565b5b601f19601f8301169050602081019050919050565b600081519050919050565b600082825260208201905092915050565b6000611186826111ff565b9150611191836111ff565b9250828210156111a4576111a361127d565b5b828203905092915050565b60006111ba826111df565b9050919050565b60006111cc826111df565b9050919050565b60008115159050919050565b600073ffffffffffffffffffffffffffffffffffffffff82169050919050565b6000819050919050565b82818337600083830152505050565b60005b8381101561123657808201518184015260208101905061121b565b83811115611245576000848401525b50505050565b6000600282049050600182168061126357607f821691505b60208210811415611277576112766112ac565b5b50919050565b7f4e487b7100000000000000000000000000000000000000000000000000000000600052601160045260246000fd5b7f4e487b7100000000000000000000000000000000000000000000000000000000600052602260045260246000fd5b7f4e487b7100000000000000000000000000000000000000000000000000000000600052604160045260246000fd5b6000601f19601f8301169050919050565b611324816111ff565b811461132f57600080fd5b5056fea264697066735822122058ec9d8250c9fd2a91aca4acf842033fa12ae7d6ad85f8afe6ba54710e3144a764736f6c63430008000033",
  "immutableReferences": {},
  "source": "// SPDX-License-Identifier: MIT\r\npragma solidity ^0.8.0;\r\n\r\ncontract FreelanceMarketplace {\r\n    struct Job {\r\n        string title;\r\n        string description;\r\n        uint256 payment;\r\n        address payable freelancer;\r\n        bool isComplete;\r\n    }\r\n\r\n    Job[] public jobs;\r\n    address public owner;\r\n\r\n    constructor() {\r\n        owner = msg.sender;\r\n    }\r\n\r\n    event JobCreated(uint256 jobId, string title, uint256 payment);\r\n    event JobCompleted(uint256 jobId, address freelancer);\r\n\r\nevent JobApplied(uint256 jobId, address freelancer);\r\n    modifier onlyOwner() {\r\n        require(msg.sender == owner, \"Only owner can call this function\");\r\n        _;\r\n    }\r\n\r\n    function createJob(string memory _title, string memory _description, uint256 _payment) public onlyOwner {\r\n        Job memory newJob = Job({\r\n            title: _title,\r\n            description: _description,\r\n            payment: _payment,\r\n            freelancer: payable(address(0)),\r\n            isComplete: false\r\n        });\r\n\r\n        jobs.push(newJob);\r\n        emit JobCreated(jobs.length - 1, _title, _payment);\r\n    }\r\n\r\n     function applyForJob(uint256 _jobId) public payable {\r\n\r\n    Job storage job = jobs[_jobId];\r\n\r\n   // require(job.isActive, \"Job is not active\");\r\n    require(job.freelancer == address(0), \"Job already taken\"); // Check if job is taken\r\n    require(msg.value == job.payment, \"Incorrect payment amount\"); // Check payment\r\n\r\n    job.freelancer = payable(msg.sender); // Assign freelancer\r\n    emit JobApplied(_jobId, msg.sender); // Emit event\r\n}\r\n\r\n\r\n    function completeJob(uint256 _jobId) public {\r\n        Job storage job = jobs[_jobId];\r\n        require(job.freelancer == msg.sender, \"Only assigned freelancer can complete this job\");\r\n        require(!job.isComplete, \"Job already completed\");\r\n\r\n        job.isComplete = true;\r\n        job.freelancer.transfer(job.payment);\r\n        emit JobCompleted(_jobId, msg.sender);\r\n    }\r\n\r\n    function jobCount() public view returns (uint256) {\r\n        return jobs.length;\r\n    }\r\n\r\n    function getJob(uint256 _jobId) public view returns (string memory, string memory, uint256, address, bool) {\r\n        Job memory job = jobs[_jobId];\r\n        return (job.title, job.description, job.payment, job.freelancer, job.isComplete);\r\n    }\r\n}\r\n",
  "sourcePath": "C:\\Users\\Asad Javed\\Desktop\\Crypto Freelance MarketPlace\\contracts\\FreelanceMarketplace.sol",
  "compiler": {
    "name": "solc",
    "version": "0.8.0+commit.c7dfd78e.Emscripten.clang"
  },
  "schemaVersion": "3.4.16",
  "updatedAt": "2024-10-04T15:16:02.348Z",
  "networkType": "ethereum",
  "devdoc": {
    "kind": "dev",
    "methods": {},
    "version": 1
  },
  "userdoc": {
    "kind": "user",
    "methods": {},
    "version": 1
  }
}