{
  "contractName": "FreelanceMarketplace",
  "abi": [
    {
      "inputs": [],
      "stateMutability": "nonpayable",
      "type": "constructor"
    },
    {
      "anonymous": false,
      "inputs": [
        {
          "indexed": false,
          "internalType": "uint256",
          "name": "jobId",
          "type": "uint256"
        },
        {
          "indexed": false,
          "internalType": "address",
          "name": "freelancer",
          "type": "address"
        }
      ],
      "name": "JobApplied",
      "type": "event"
    },
    {
      "anonymous": false,
      "inputs": [
        {
          "indexed": false,
          "internalType": "uint256",
          "name": "jobId",
          "type": "uint256"
        },
        {
          "indexed": false,
          "internalType": "address",
          "name": "freelancer",
          "type": "address"
        }
      ],
      "name": "JobCompleted",
      "type": "event"
    },
    {
      "anonymous": false,
      "inputs": [
        {
          "indexed": false,
          "internalType": "uint256",
          "name": "jobId",
          "type": "uint256"
        },
        {
          "indexed": false,
          "internalType": "string",
          "name": "title",
          "type": "string"
        },
        {
          "indexed": false,
          "internalType": "uint256",
          "name": "payment",
          "type": "uint256"
        }
      ],
      "name": "JobCreated",
      "type": "event"
    },
    {
      "inputs": [
        {
          "internalType": "uint256",
          "name": "",
          "type": "uint256"
        }
      ],
      "name": "jobs",
      "outputs": [
        {
          "internalType": "string",
          "name": "title",
          "type": "string"
        },
        {
          "internalType": "string",
          "name": "description",
          "type": "string"
        },
        {
          "internalType": "uint256",
          "name": "payment",
          "type": "uint256"
        },
        {
          "internalType": "address payable",
          "name": "freelancer",
          "type": "address"
        },
        {
          "internalType": "address payable",
          "name": "creator",
          "type": "address"
        },
        {
          "internalType": "bool",
          "name": "isComplete",
          "type": "bool"
        }
      ],
      "stateMutability": "view",
      "type": "function",
      "constant": true
    },
    {
      "inputs": [],
      "name": "owner",
      "outputs": [
        {
          "internalType": "address",
          "name": "",
          "type": "address"
        }
      ],
      "stateMutability": "view",
      "type": "function",
      "constant": true
    },
    {
      "inputs": [
        {
          "internalType": "string",
          "name": "_title",
          "type": "string"
        },
        {
          "internalType": "string",
          "name": "_description",
          "type": "string"
        },
        {
          "internalType": "uint256",
          "name": "_payment",
          "type": "uint256"
        }
      ],
      "name": "createJob",
      "outputs": [],
      "stateMutability": "nonpayable",
      "type": "function"
    },
    {
      "inputs": [
        {
          "internalType": "uint256",
          "name": "_jobId",
          "type": "uint256"
        }
      ],
      "name": "applyForJob",
      "outputs": [],
      "stateMutability": "nonpayable",
      "type": "function"
    },
    {
      "inputs": [
        {
          "internalType": "uint256",
          "name": "_jobId",
          "type": "uint256"
        }
      ],
      "name": "completeJob",
      "outputs": [],
      "stateMutability": "nonpayable",
      "type": "function"
    },
    {
      "inputs": [],
      "name": "jobCount",
      "outputs": [
        {
          "internalType": "uint256",
          "name": "",
          "type": "uint256"
        }
      ],
      "stateMutability": "view",
      "type": "function",
      "constant": true
    },
    {
      "inputs": [
        {
          "internalType": "uint256",
          "name": "_jobId",
          "type": "uint256"
        }
      ],
      "name": "getJob",
      "outputs": [
        {
          "internalType": "string",
          "name": "",
          "type": "string"
        },
        {
          "internalType": "string",
          "name": "",
          "type": "string"
        },
        {
          "internalType": "uint256",
          "name": "",
          "type": "uint256"
        },
        {
          "internalType": "address",
          "name": "",
          "type": "address"
        },
        {
          "internalType": "bool",
          "name": "",
          "type": "bool"
        }
      ],
      "stateMutability": "view",
      "type": "function",
      "constant": true
    }
  ],
  "bytecode": "0x608060405234801561001057600080fd5b5033600160006101000a81548173ffffffffffffffffffffffffffffffffffffffff021916908373ffffffffffffffffffffffffffffffffffffffff1602179055506113de806100616000396000f3fe608060405234801561001057600080fd5b506004361061007d5760003560e01c80638da5cb5b1161005b5780638da5cb5b146100f1578063a1c0d32f1461010f578063bf22c4571461012b578063e0c94ae51461015f5761007d565b8063180aedf3146100825780634c5d8a0f146100b757806373a06f42146100d5575b600080fd5b61009c60048036038101906100979190610d9d565b61017b565b6040516100ae96959493929190610fa2565b60405180910390f35b6100bf610324565b6040516100cc91906110f2565b60405180910390f35b6100ef60048036038101906100ea9190610d1e565b610330565b005b6100f9610593565b6040516101069190610f87565b60405180910390f35b61012960048036038101906101249190610d9d565b6105b9565b005b61014560048036038101906101409190610d9d565b6107b1565b604051610156959493929190611011565b60405180910390f35b61017960048036038101906101749190610d9d565b610a31565b005b6000818154811061018b57600080fd5b90600052602060002090600502016000915090508060000180546101ae906112c1565b80601f01602080910402602001604051908101604052809291908181526020018280546101da906112c1565b80156102275780601f106101fc57610100808354040283529160200191610227565b820191906000526020600020905b81548152906001019060200180831161020a57829003601f168201915b50505050509080600101805461023c906112c1565b80601f0160208091040260200160405190810160405280929190818152602001828054610268906112c1565b80156102b55780601f1061028a576101008083540402835291602001916102b5565b820191906000526020600020905b81548152906001019060200180831161029857829003601f168201915b5050505050908060020154908060030160009054906101000a900473ffffffffffffffffffffffffffffffffffffffff16908060040160009054906101000a900473ffffffffffffffffffffffffffffffffffffffff16908060040160149054906101000a900460ff16905086565b60008080549050905090565b600160009054906101000a900473ffffffffffffffffffffffffffffffffffffffff1673ffffffffffffffffffffffffffffffffffffffff163373ffffffffffffffffffffffffffffffffffffffff16146103c0576040517f08c379a00000000000000000000000000000000000000000000000000000000081526004016103b790611072565b60405180910390fd5b60006040518060c00160405280858152602001848152602001838152602001600073ffffffffffffffffffffffffffffffffffffffff1681526020013373ffffffffffffffffffffffffffffffffffffffff16815260200160001515815250905060008190806001815401808255809150506001900390600052602060002090600502016000909190919091506000820151816000019080519060200190610469929190610bfe565b506020820151816001019080519060200190610486929190610bfe565b506040820151816002015560608201518160030160006101000a81548173ffffffffffffffffffffffffffffffffffffffff021916908373ffffffffffffffffffffffffffffffffffffffff16021790555060808201518160040160006101000a81548173ffffffffffffffffffffffffffffffffffffffff021916908373ffffffffffffffffffffffffffffffffffffffff16021790555060a08201518160040160146101000a81548160ff02191690831515021790555050507f3dee1355894338f74293714b178f468bd5d435a12c22fef70a5b56c528957d41600160008054905061057491906111f1565b858460405161058593929190611136565b60405180910390a150505050565b600160009054906101000a900473ffffffffffffffffffffffffffffffffffffffff1681565b60008082815481106105f4577f4e487b7100000000000000000000000000000000000000000000000000000000600052603260045260246000fd5b906000526020600020906005020190503373ffffffffffffffffffffffffffffffffffffffff168160030160009054906101000a900473ffffffffffffffffffffffffffffffffffffffff1673ffffffffffffffffffffffffffffffffffffffff1614610696576040517f08c379a000000000000000000000000000000000000000000000000000000000815260040161068d906110d2565b60405180910390fd5b8060040160149054906101000a900460ff16156106e8576040517f08c379a00000000000000000000000000000000000000000000000000000000081526004016106df906110b2565b60405180910390fd5b60018160040160146101000a81548160ff0219169083151502179055508060030160009054906101000a900473ffffffffffffffffffffffffffffffffffffffff1673ffffffffffffffffffffffffffffffffffffffff166108fc82600201549081150290604051600060405180830381858888f19350505050158015610773573d6000803e3d6000fd5b507f16a7286196330eaff0c7db2ec34ead9c6d2d023b356b62ee7ea644c842a84b6782336040516107a592919061110d565b60405180910390a15050565b606080600080600080600087815481106107f4577f4e487b7100000000000000000000000000000000000000000000000000000000600052603260045260246000fd5b90600052602060002090600502016040518060c001604052908160008201805461081d906112c1565b80601f0160208091040260200160405190810160405280929190818152602001828054610849906112c1565b80156108965780601f1061086b57610100808354040283529160200191610896565b820191906000526020600020905b81548152906001019060200180831161087957829003601f168201915b505050505081526020016001820180546108af906112c1565b80601f01602080910402602001604051908101604052809291908181526020018280546108db906112c1565b80156109285780601f106108fd57610100808354040283529160200191610928565b820191906000526020600020905b81548152906001019060200180831161090b57829003601f168201915b50505050508152602001600282015481526020016003820160009054906101000a900473ffffffffffffffffffffffffffffffffffffffff1673ffffffffffffffffffffffffffffffffffffffff1673ffffffffffffffffffffffffffffffffffffffff1681526020016004820160009054906101000a900473ffffffffffffffffffffffffffffffffffffffff1673ffffffffffffffffffffffffffffffffffffffff1673ffffffffffffffffffffffffffffffffffffffff1681526020016004820160149054906101000a900460ff161515151581525050905080600001518160200151826040015183606001518460a00151955095509550955095505091939590929450565b6000808281548110610a6c577f4e487b7100000000000000000000000000000000000000000000000000000000600052603260045260246000fd5b90600052602060002090600502019050600073ffffffffffffffffffffffffffffffffffffffff168160030160009054906101000a900473ffffffffffffffffffffffffffffffffffffffff1673ffffffffffffffffffffffffffffffffffffffff1614610b0f576040517f08c379a0000000000000000000000000000000000000000000000000000000008152600401610b0690611092565b60405180910390fd5b8060040160009054906101000a900473ffffffffffffffffffffffffffffffffffffffff1673ffffffffffffffffffffffffffffffffffffffff166108fc82600201549081150290604051600060405180830381858888f19350505050158015610b7d573d6000803e3d6000fd5b50338160030160006101000a81548173ffffffffffffffffffffffffffffffffffffffff021916908373ffffffffffffffffffffffffffffffffffffffff1602179055507fffa837d183240a5f25cbd643a8eade702c0c9c3e186c59c7d929e4f1a3438d868233604051610bf292919061110d565b60405180910390a15050565b828054610c0a906112c1565b90600052602060002090601f016020900481019282610c2c5760008555610c73565b82601f10610c4557805160ff1916838001178555610c73565b82800160010185558215610c73579182015b82811115610c72578251825591602001919060010190610c57565b5b509050610c809190610c84565b5090565b5b80821115610c9d576000816000905550600101610c85565b5090565b6000610cb4610caf846111a5565b611174565b905082815260208101848484011115610ccc57600080fd5b610cd784828561127f565b509392505050565b600082601f830112610cf057600080fd5b8135610d00848260208601610ca1565b91505092915050565b600081359050610d1881611391565b92915050565b600080600060608486031215610d3357600080fd5b600084013567ffffffffffffffff811115610d4d57600080fd5b610d5986828701610cdf565b935050602084013567ffffffffffffffff811115610d7657600080fd5b610d8286828701610cdf565b9250506040610d9386828701610d09565b9150509250925092565b600060208284031215610daf57600080fd5b6000610dbd84828501610d09565b91505092915050565b610dcf81611237565b82525050565b610dde81611225565b82525050565b610ded81611249565b82525050565b6000610dfe826111d5565b610e0881856111e0565b9350610e1881856020860161128e565b610e2181611380565b840191505092915050565b6000610e396021836111e0565b91507f4f6e6c79206f776e65722063616e2063616c6c20746869732066756e6374696f60008301527f6e000000000000000000000000000000000000000000000000000000000000006020830152604082019050919050565b6000610e9f6011836111e0565b91507f4a6f6220616c72656164792074616b656e0000000000000000000000000000006000830152602082019050919050565b6000610edf6015836111e0565b91507f4a6f6220616c726561647920636f6d706c6574656400000000000000000000006000830152602082019050919050565b6000610f1f602e836111e0565b91507f4f6e6c792061737369676e656420667265656c616e6365722063616e20636f6d60008301527f706c6574652074686973206a6f620000000000000000000000000000000000006020830152604082019050919050565b610f8181611275565b82525050565b6000602082019050610f9c6000830184610dd5565b92915050565b600060c0820190508181036000830152610fbc8189610df3565b90508181036020830152610fd08188610df3565b9050610fdf6040830187610f78565b610fec6060830186610dc6565b610ff96080830185610dc6565b61100660a0830184610de4565b979650505050505050565b600060a082019050818103600083015261102b8188610df3565b9050818103602083015261103f8187610df3565b905061104e6040830186610f78565b61105b6060830185610dd5565b6110686080830184610de4565b9695505050505050565b6000602082019050818103600083015261108b81610e2c565b9050919050565b600060208201905081810360008301526110ab81610e92565b9050919050565b600060208201905081810360008301526110cb81610ed2565b9050919050565b600060208201905081810360008301526110eb81610f12565b9050919050565b60006020820190506111076000830184610f78565b92915050565b60006040820190506111226000830185610f78565b61112f6020830184610dd5565b9392505050565b600060608201905061114b6000830186610f78565b818103602083015261115d8185610df3565b905061116c6040830184610f78565b949350505050565b6000604051905081810181811067ffffffffffffffff8211171561119b5761119a611351565b5b8060405250919050565b600067ffffffffffffffff8211156111c0576111bf611351565b5b601f19601f8301169050602081019050919050565b600081519050919050565b600082825260208201905092915050565b60006111fc82611275565b915061120783611275565b92508282101561121a576112196112f3565b5b828203905092915050565b600061123082611255565b9050919050565b600061124282611255565b9050919050565b60008115159050919050565b600073ffffffffffffffffffffffffffffffffffffffff82169050919050565b6000819050919050565b82818337600083830152505050565b60005b838110156112ac578082015181840152602081019050611291565b838111156112bb576000848401525b50505050565b600060028204905060018216806112d957607f821691505b602082108114156112ed576112ec611322565b5b50919050565b7f4e487b7100000000000000000000000000000000000000000000000000000000600052601160045260246000fd5b7f4e487b7100000000000000000000000000000000000000000000000000000000600052602260045260246000fd5b7f4e487b7100000000000000000000000000000000000000000000000000000000600052604160045260246000fd5b6000601f19601f8301169050919050565b61139a81611275565b81146113a557600080fd5b5056fea264697066735822122022414e0b9e816b935a891b1109b48130d962b37cb15f2872e08cf00a89466e1764736f6c63430008000033",
  "immutableReferences": {},
  "source": "// SPDX-License-Identifier: MIT\r\npragma solidity ^0.8.0;\r\n\r\ncontract FreelanceMarketplace {\r\n    struct Job {\r\n        string title;\r\n        string description;\r\n        uint256 payment;\r\n        address payable freelancer;\r\n        address payable creator; // Job creator's address\r\n        bool isComplete;\r\n    }\r\n\r\n    Job[] public jobs;\r\n    address public owner;\r\n\r\n    constructor() {\r\n        owner = msg.sender;\r\n    }\r\n\r\n    event JobCreated(uint256 jobId, string title, uint256 payment);\r\n    event JobCompleted(uint256 jobId, address freelancer);\r\n    event JobApplied(uint256 jobId, address freelancer);\r\n\r\n    modifier onlyOwner() {\r\n        require(msg.sender == owner, \"Only owner can call this function\");\r\n        _;\r\n    }\r\n\r\n    function createJob(string memory _title, string memory _description, uint256 _payment) public onlyOwner {\r\n        Job memory newJob = Job({\r\n            title: _title,\r\n            description: _description,\r\n            payment: _payment,\r\n            freelancer: payable(address(0)),\r\n            creator: payable(msg.sender), // Set creator\r\n            isComplete: false\r\n        });\r\n\r\n        jobs.push(newJob);\r\n        emit JobCreated(jobs.length - 1, _title, _payment);\r\n    }\r\n\r\n    function applyForJob(uint256 _jobId) public {\r\n        Job storage job = jobs[_jobId];\r\n\r\n        require(job.freelancer == address(0), \"Job already taken\"); // Check if job is taken\r\n\r\n        // Transfer payment from the creator to the contract\r\n        job.creator.transfer(job.payment); // Send payment to the contract\r\n\r\n        job.freelancer = payable(msg.sender); // Assign freelancer\r\n        emit JobApplied(_jobId, msg.sender); // Emit event\r\n    }\r\n\r\n    function completeJob(uint256 _jobId) public {\r\n        Job storage job = jobs[_jobId];\r\n        require(job.freelancer == msg.sender, \"Only assigned freelancer can complete this job\");\r\n        require(!job.isComplete, \"Job already completed\");\r\n\r\n        job.isComplete = true;\r\n        job.freelancer.transfer(job.payment); // Transfer payment to freelancer\r\n        emit JobCompleted(_jobId, msg.sender);\r\n    }\r\n\r\n    function jobCount() public view returns (uint256) {\r\n        return jobs.length;\r\n    }\r\n\r\n    function getJob(uint256 _jobId) public view returns (string memory, string memory, uint256, address, bool) {\r\n        Job memory job = jobs[_jobId];\r\n        return (job.title, job.description, job.payment, job.freelancer, job.isComplete);\r\n    }\r\n}\r\n",
  "sourcePath": "C:\\Users\\Asad Javed\\Desktop\\Crypto Freelance MarketPlace\\contracts\\FreelanceMarketplace.sol",
  "compiler": {
    "name": "solc",
    "version": "0.8.0+commit.c7dfd78e.Emscripten.clang"
  },
  "schemaVersion": "3.4.16",
  "updatedAt": "2024-10-07T15:51:38.383Z",
  "networkType": "ethereum",
  "devdoc": {
    "kind": "dev",
    "methods": {},
    "version": 1
  },
  "userdoc": {
    "kind": "user",
    "methods": {},
    "version": 1
  }
}