{
  "contractName": "FreelanceMarketplace",
  "abi": [
    {
      "inputs": [],
      "stateMutability": "nonpayable",
      "type": "constructor"
    },
    {
      "anonymous": false,
      "inputs": [
        {
          "indexed": false,
          "internalType": "uint256",
          "name": "jobId",
          "type": "uint256"
        },
        {
          "indexed": false,
          "internalType": "address",
          "name": "freelancer",
          "type": "address"
        }
      ],
      "name": "JobApplied",
      "type": "event"
    },
    {
      "anonymous": false,
      "inputs": [
        {
          "indexed": false,
          "internalType": "uint256",
          "name": "jobId",
          "type": "uint256"
        },
        {
          "indexed": false,
          "internalType": "address",
          "name": "creator",
          "type": "address"
        }
      ],
      "name": "JobApproved",
      "type": "event"
    },
    {
      "anonymous": false,
      "inputs": [
        {
          "indexed": false,
          "internalType": "uint256",
          "name": "jobId",
          "type": "uint256"
        },
        {
          "indexed": false,
          "internalType": "address",
          "name": "creator",
          "type": "address"
        },
        {
          "indexed": false,
          "internalType": "uint256",
          "name": "refundedAmount",
          "type": "uint256"
        }
      ],
      "name": "JobCancelled",
      "type": "event"
    },
    {
      "anonymous": false,
      "inputs": [
        {
          "indexed": false,
          "internalType": "uint256",
          "name": "jobId",
          "type": "uint256"
        },
        {
          "indexed": false,
          "internalType": "address",
          "name": "freelancer",
          "type": "address"
        }
      ],
      "name": "JobCompleted",
      "type": "event"
    },
    {
      "anonymous": false,
      "inputs": [
        {
          "indexed": false,
          "internalType": "uint256",
          "name": "jobId",
          "type": "uint256"
        },
        {
          "indexed": false,
          "internalType": "string",
          "name": "title",
          "type": "string"
        },
        {
          "indexed": false,
          "internalType": "uint256",
          "name": "payment",
          "type": "uint256"
        }
      ],
      "name": "JobCreated",
      "type": "event"
    },
    {
      "inputs": [
        {
          "internalType": "uint256",
          "name": "",
          "type": "uint256"
        }
      ],
      "name": "escrowBalances",
      "outputs": [
        {
          "internalType": "uint256",
          "name": "",
          "type": "uint256"
        }
      ],
      "stateMutability": "view",
      "type": "function",
      "constant": true
    },
    {
      "inputs": [
        {
          "internalType": "uint256",
          "name": "",
          "type": "uint256"
        }
      ],
      "name": "jobs",
      "outputs": [
        {
          "internalType": "string",
          "name": "title",
          "type": "string"
        },
        {
          "internalType": "string",
          "name": "description",
          "type": "string"
        },
        {
          "internalType": "uint256",
          "name": "payment",
          "type": "uint256"
        },
        {
          "internalType": "address payable",
          "name": "freelancer",
          "type": "address"
        },
        {
          "internalType": "address payable",
          "name": "creator",
          "type": "address"
        },
        {
          "internalType": "bool",
          "name": "isComplete",
          "type": "bool"
        },
        {
          "internalType": "bool",
          "name": "isApproved",
          "type": "bool"
        },
        {
          "internalType": "bool",
          "name": "isActive",
          "type": "bool"
        }
      ],
      "stateMutability": "view",
      "type": "function",
      "constant": true
    },
    {
      "inputs": [],
      "name": "owner",
      "outputs": [
        {
          "internalType": "address",
          "name": "",
          "type": "address"
        }
      ],
      "stateMutability": "view",
      "type": "function",
      "constant": true
    },
    {
      "inputs": [
        {
          "internalType": "string",
          "name": "_title",
          "type": "string"
        },
        {
          "internalType": "string",
          "name": "_description",
          "type": "string"
        }
      ],
      "name": "createJob",
      "outputs": [],
      "stateMutability": "payable",
      "type": "function",
      "payable": true
    },
    {
      "inputs": [
        {
          "internalType": "uint256",
          "name": "_jobId",
          "type": "uint256"
        }
      ],
      "name": "applyForJob",
      "outputs": [],
      "stateMutability": "nonpayable",
      "type": "function"
    },
    {
      "inputs": [
        {
          "internalType": "uint256",
          "name": "_jobId",
          "type": "uint256"
        }
      ],
      "name": "completeJob",
      "outputs": [],
      "stateMutability": "nonpayable",
      "type": "function"
    },
    {
      "inputs": [
        {
          "internalType": "uint256",
          "name": "_jobId",
          "type": "uint256"
        }
      ],
      "name": "approveJob",
      "outputs": [],
      "stateMutability": "nonpayable",
      "type": "function"
    },
    {
      "inputs": [
        {
          "internalType": "uint256",
          "name": "_jobId",
          "type": "uint256"
        }
      ],
      "name": "cancelJob",
      "outputs": [],
      "stateMutability": "nonpayable",
      "type": "function"
    },
    {
      "inputs": [],
      "name": "jobCount",
      "outputs": [
        {
          "internalType": "uint256",
          "name": "",
          "type": "uint256"
        }
      ],
      "stateMutability": "view",
      "type": "function",
      "constant": true
    },
    {
      "inputs": [
        {
          "internalType": "uint256",
          "name": "_jobId",
          "type": "uint256"
        }
      ],
      "name": "getJob",
      "outputs": [
        {
          "internalType": "string",
          "name": "",
          "type": "string"
        },
        {
          "internalType": "string",
          "name": "",
          "type": "string"
        },
        {
          "internalType": "uint256",
          "name": "",
          "type": "uint256"
        },
        {
          "internalType": "address",
          "name": "",
          "type": "address"
        },
        {
          "internalType": "bool",
          "name": "",
          "type": "bool"
        },
        {
          "internalType": "bool",
          "name": "",
          "type": "bool"
        },
        {
          "internalType": "bool",
          "name": "",
          "type": "bool"
        }
      ],
      "stateMutability": "view",
      "type": "function",
      "constant": true
    },
    {
      "inputs": [],
      "name": "getAppliedJobs",
      "outputs": [
        {
          "internalType": "uint256[]",
          "name": "",
          "type": "uint256[]"
        }
      ],
      "stateMutability": "view",
      "type": "function",
      "constant": true
    }
  ],
  "bytecode": "0x608060405234801561001057600080fd5b5033600160006101000a81548173ffffffffffffffffffffffffffffffffffffffff021916908373ffffffffffffffffffffffffffffffffffffffff16021790555061227e806100616000396000f3fe60806040526004361061009c5760003560e01c80634bd23b9e116100645780634bd23b9e146101925780634c5d8a0f146101bb5780638da5cb5b146101e6578063a1c0d32f14610211578063bf22c4571461023a578063e0c94ae51461027d5761009c565b8063180aedf3146100a15780631dffa3dc146100e55780632b1ed5811461010e57806343ebf45a1461012a57806348aee51e14610167575b600080fd5b3480156100ad57600080fd5b506100c860048036038101906100c391906117b8565b6102a6565b6040516100dc989796959493929190611c70565b60405180910390f35b3480156100f157600080fd5b5061010c600480360381019061010791906117b8565b610475565b005b6101286004803603810190610123919061174c565b610754565b005b34801561013657600080fd5b50610151600480360381019061014c91906117b8565b6109da565b60405161015e9190611ed9565b60405180910390f35b34801561017357600080fd5b5061017c6109f2565b6040516101899190611c4e565b60405180910390f35b34801561019e57600080fd5b506101b960048036038101906101b491906117b8565b610c5c565b005b3480156101c757600080fd5b506101d0610f1c565b6040516101dd9190611ed9565b60405180910390f35b3480156101f257600080fd5b506101fb610f28565b6040516102089190611c33565b60405180910390f35b34801561021d57600080fd5b50610238600480360381019061023391906117b8565b610f4e565b005b34801561024657600080fd5b50610261600480360381019061025c91906117b8565b611120565b6040516102749796959493929190611cfc565b60405180910390f35b34801561028957600080fd5b506102a4600480360381019061029f91906117b8565b6113ea565b005b600081815481106102b657600080fd5b90600052602060002090600502016000915090508060000180546102d990612118565b80601f016020809104026020016040519081016040528092919081815260200182805461030590612118565b80156103525780601f1061032757610100808354040283529160200191610352565b820191906000526020600020905b81548152906001019060200180831161033557829003601f168201915b50505050509080600101805461036790612118565b80601f016020809104026020016040519081016040528092919081815260200182805461039390612118565b80156103e05780601f106103b5576101008083540402835291602001916103e0565b820191906000526020600020905b8154815290600101906020018083116103c357829003601f168201915b5050505050908060020154908060030160009054906101000a900473ffffffffffffffffffffffffffffffffffffffff16908060040160009054906101000a900473ffffffffffffffffffffffffffffffffffffffff16908060040160149054906101000a900460ff16908060040160159054906101000a900460ff16908060040160169054906101000a900460ff16905088565b80600081815481106104b0577f4e487b7100000000000000000000000000000000000000000000000000000000600052603260045260246000fd5b906000526020600020906005020160040160009054906101000a900473ffffffffffffffffffffffffffffffffffffffff1673ffffffffffffffffffffffffffffffffffffffff163373ffffffffffffffffffffffffffffffffffffffff161461054f576040517f08c379a000000000000000000000000000000000000000000000000000000000815260040161054690611db9565b60405180910390fd5b600080838154811061058a577f4e487b7100000000000000000000000000000000000000000000000000000000600052603260045260246000fd5b906000526020600020906005020190508060040160169054906101000a900460ff166105eb576040517f08c379a00000000000000000000000000000000000000000000000000000000081526004016105e290611df9565b60405180910390fd5b600073ffffffffffffffffffffffffffffffffffffffff168160030160009054906101000a900473ffffffffffffffffffffffffffffffffffffffff1673ffffffffffffffffffffffffffffffffffffffff161461067e576040517f08c379a000000000000000000000000000000000000000000000000000000000815260040161067590611e39565b60405180910390fd5b60008160040160166101000a81548160ff021916908315150217905550600060026000858152602001908152602001600020549050600060026000868152602001908152602001600020819055503373ffffffffffffffffffffffffffffffffffffffff166108fc829081150290604051600060405180830381858888f19350505050158015610712573d6000803e3d6000fd5b507fa80c76c474b34cc7af71dec63d733b959fff08f4eb0789e288be5db6b608f94284338360405161074693929190611f1d565b60405180910390a150505050565b60003411610797576040517f08c379a000000000000000000000000000000000000000000000000000000000815260040161078e90611d99565b60405180910390fd5b6000604051806101000160405280848152602001838152602001348152602001600073ffffffffffffffffffffffffffffffffffffffff1681526020013373ffffffffffffffffffffffffffffffffffffffff1681526020016000151581526020016000151581526020016001151581525090506000819080600181540180825580915050600190039060005260206000209060050201600090919091909150600082015181600001908051906020019061085392919061162c565b50602082015181600101908051906020019061087092919061162c565b506040820151816002015560608201518160030160006101000a81548173ffffffffffffffffffffffffffffffffffffffff021916908373ffffffffffffffffffffffffffffffffffffffff16021790555060808201518160040160006101000a81548173ffffffffffffffffffffffffffffffffffffffff021916908373ffffffffffffffffffffffffffffffffffffffff16021790555060a08201518160040160146101000a81548160ff02191690831515021790555060c08201518160040160156101000a81548160ff02191690831515021790555060e08201518160040160166101000a81548160ff02191690831515021790555050506000600160008054905061097f9190612048565b90503460026000838152602001908152602001600020819055507f3dee1355894338f74293714b178f468bd5d435a12c22fef70a5b56c528957d418185346040516109cc93929190611f54565b60405180910390a150505050565b60026020528060005260406000206000915090505481565b60606000808080549050905060005b81811015610aca573373ffffffffffffffffffffffffffffffffffffffff1660008281548110610a5a577f4e487b7100000000000000000000000000000000000000000000000000000000600052603260045260246000fd5b906000526020600020906005020160030160009054906101000a900473ffffffffffffffffffffffffffffffffffffffff1673ffffffffffffffffffffffffffffffffffffffff161415610ab7578280610ab39061214a565b9350505b8080610ac29061214a565b915050610a01565b5060008267ffffffffffffffff811115610b0d577f4e487b7100000000000000000000000000000000000000000000000000000000600052604160045260246000fd5b604051908082528060200260200182016040528015610b3b5781602001602082028036833780820191505090505b5090506000805b83811015610c51573373ffffffffffffffffffffffffffffffffffffffff1660008281548110610b9b577f4e487b7100000000000000000000000000000000000000000000000000000000600052603260045260246000fd5b906000526020600020906005020160030160009054906101000a900473ffffffffffffffffffffffffffffffffffffffff1673ffffffffffffffffffffffffffffffffffffffff161415610c3e5780838381518110610c23577f4e487b7100000000000000000000000000000000000000000000000000000000600052603260045260246000fd5b6020026020010181815250508180610c3a9061214a565b9250505b8080610c499061214a565b915050610b42565b508194505050505090565b8060008181548110610c97577f4e487b7100000000000000000000000000000000000000000000000000000000600052603260045260246000fd5b906000526020600020906005020160040160009054906101000a900473ffffffffffffffffffffffffffffffffffffffff1673ffffffffffffffffffffffffffffffffffffffff163373ffffffffffffffffffffffffffffffffffffffff1614610d36576040517f08c379a0000000000000000000000000000000000000000000000000000000008152600401610d2d90611db9565b60405180910390fd5b6000808381548110610d71577f4e487b7100000000000000000000000000000000000000000000000000000000600052603260045260246000fd5b906000526020600020906005020190508060040160149054906101000a900460ff16610dd2576040517f08c379a0000000000000000000000000000000000000000000000000000000008152600401610dc990611eb9565b60405180910390fd5b8060040160159054906101000a900460ff1615610e24576040517f08c379a0000000000000000000000000000000000000000000000000000000008152600401610e1b90611e99565b60405180910390fd5b60018160040160156101000a81548160ff021916908315150217905550600060026000858152602001908152602001600020549050600060026000868152602001908152602001600020819055508160030160009054906101000a900473ffffffffffffffffffffffffffffffffffffffff1673ffffffffffffffffffffffffffffffffffffffff166108fc829081150290604051600060405180830381858888f19350505050158015610edc573d6000803e3d6000fd5b507f672bfedacbff1d20ad166b512468e3a6471d444eb51c81a4b7168a8232481e608433604051610f0e929190611ef4565b60405180910390a150505050565b60008080549050905090565b600160009054906101000a900473ffffffffffffffffffffffffffffffffffffffff1681565b8060008181548110610f89577f4e487b7100000000000000000000000000000000000000000000000000000000600052603260045260246000fd5b906000526020600020906005020160030160009054906101000a900473ffffffffffffffffffffffffffffffffffffffff1673ffffffffffffffffffffffffffffffffffffffff163373ffffffffffffffffffffffffffffffffffffffff1614611028576040517f08c379a000000000000000000000000000000000000000000000000000000000815260040161101f90611d79565b60405180910390fd5b6000808381548110611063577f4e487b7100000000000000000000000000000000000000000000000000000000600052603260045260246000fd5b906000526020600020906005020190508060040160149054906101000a900460ff16156110c5576040517f08c379a00000000000000000000000000000000000000000000000000000000081526004016110bc90611e19565b60405180910390fd5b60018160040160146101000a81548160ff0219169083151502179055507f16a7286196330eaff0c7db2ec34ead9c6d2d023b356b62ee7ea644c842a84b678333604051611113929190611ef4565b60405180910390a1505050565b60608060008060008060008060008981548110611166577f4e487b7100000000000000000000000000000000000000000000000000000000600052603260045260246000fd5b90600052602060002090600502016040518061010001604052908160008201805461119090612118565b80601f01602080910402602001604051908101604052809291908181526020018280546111bc90612118565b80156112095780601f106111de57610100808354040283529160200191611209565b820191906000526020600020905b8154815290600101906020018083116111ec57829003601f168201915b5050505050815260200160018201805461122290612118565b80601f016020809104026020016040519081016040528092919081815260200182805461124e90612118565b801561129b5780601f106112705761010080835404028352916020019161129b565b820191906000526020600020905b81548152906001019060200180831161127e57829003601f168201915b50505050508152602001600282015481526020016003820160009054906101000a900473ffffffffffffffffffffffffffffffffffffffff1673ffffffffffffffffffffffffffffffffffffffff1673ffffffffffffffffffffffffffffffffffffffff1681526020016004820160009054906101000a900473ffffffffffffffffffffffffffffffffffffffff1673ffffffffffffffffffffffffffffffffffffffff1673ffffffffffffffffffffffffffffffffffffffff1681526020016004820160149054906101000a900460ff161515151581526020016004820160159054906101000a900460ff161515151581526020016004820160169054906101000a900460ff161515151581525050905080600001518160200151826040015183606001518460a001518560c001518660e00151975097509750975097509750975050919395979092949650565b6000808281548110611425577f4e487b7100000000000000000000000000000000000000000000000000000000600052603260045260246000fd5b906000526020600020906005020190508060040160169054906101000a900460ff16611486576040517f08c379a000000000000000000000000000000000000000000000000000000000815260040161147d90611e59565b60405180910390fd5b600073ffffffffffffffffffffffffffffffffffffffff168160030160009054906101000a900473ffffffffffffffffffffffffffffffffffffffff1673ffffffffffffffffffffffffffffffffffffffff1614611519576040517f08c379a000000000000000000000000000000000000000000000000000000000815260040161151090611dd9565b60405180910390fd5b8060040160009054906101000a900473ffffffffffffffffffffffffffffffffffffffff1673ffffffffffffffffffffffffffffffffffffffff163373ffffffffffffffffffffffffffffffffffffffff1614156115ac576040517f08c379a00000000000000000000000000000000000000000000000000000000081526004016115a390611e79565b60405180910390fd5b338160030160006101000a81548173ffffffffffffffffffffffffffffffffffffffff021916908373ffffffffffffffffffffffffffffffffffffffff1602179055507fffa837d183240a5f25cbd643a8eade702c0c9c3e186c59c7d929e4f1a3438d868233604051611620929190611ef4565b60405180910390a15050565b82805461163890612118565b90600052602060002090601f01602090048101928261165a57600085556116a1565b82601f1061167357805160ff19168380011785556116a1565b828001600101855582156116a1579182015b828111156116a0578251825591602001919060010190611685565b5b5090506116ae91906116b2565b5090565b5b808211156116cb5760008160009055506001016116b3565b5090565b60006116e26116dd84611fc3565b611f92565b9050828152602081018484840111156116fa57600080fd5b6117058482856120d6565b509392505050565b600082601f83011261171e57600080fd5b813561172e8482602086016116cf565b91505092915050565b60008135905061174681612231565b92915050565b6000806040838503121561175f57600080fd5b600083013567ffffffffffffffff81111561177957600080fd5b6117858582860161170d565b925050602083013567ffffffffffffffff8111156117a257600080fd5b6117ae8582860161170d565b9150509250929050565b6000602082840312156117ca57600080fd5b60006117d884828501611737565b91505092915050565b60006117ed8383611c15565b60208301905092915050565b6118028161208e565b82525050565b6118118161207c565b82525050565b600061182282612003565b61182c8185612026565b935061183783611ff3565b8060005b8381101561186857815161184f88826117e1565b975061185a83612019565b92505060018101905061183b565b5085935050505092915050565b61187e816120a0565b82525050565b600061188f8261200e565b6118998185612037565b93506118a98185602086016120e5565b6118b281612220565b840191505092915050565b60006118ca602f83612037565b91507f4f6e6c792061737369676e656420667265656c616e6365722063616e2063616c60008301527f6c20746869732066756e6374696f6e00000000000000000000000000000000006020830152604082019050919050565b6000611930601e83612037565b91507f5061796d656e74206d7573742062652067726561746572207468616e203000006000830152602082019050919050565b6000611970602b83612037565b91507f4f6e6c7920746865206a6f622063726561746f722063616e2063616c6c20746860008301527f69732066756e6374696f6e0000000000000000000000000000000000000000006020830152604082019050919050565b60006119d6601183612037565b91507f4a6f6220616c72656164792074616b656e0000000000000000000000000000006000830152602082019050919050565b6000611a16601183612037565b91507f4a6f62206973206e6f74206163746976650000000000000000000000000000006000830152602082019050919050565b6000611a56601583612037565b91507f4a6f6220616c726561647920636f6d706c6574656400000000000000000000006000830152602082019050919050565b6000611a96602a83612037565b91507f43616e6e6f742063616e63656c206a6f6220776974682061737369676e65642060008301527f667265656c616e636572000000000000000000000000000000000000000000006020830152604082019050919050565b6000611afc601783612037565b91507f4a6f62206973206e6f206c6f6e676572206163746976650000000000000000006000830152602082019050919050565b6000611b3c602683612037565b91507f43726561746f722063616e6e6f74206170706c7920666f72207468656972206f60008301527f776e206a6f6200000000000000000000000000000000000000000000000000006020830152604082019050919050565b6000611ba2601483612037565b91507f4a6f6220616c726561647920617070726f7665640000000000000000000000006000830152602082019050919050565b6000611be2601783612037565b91507f4a6f62206973206e6f742079657420636f6d706c6574650000000000000000006000830152602082019050919050565b611c1e816120cc565b82525050565b611c2d816120cc565b82525050565b6000602082019050611c486000830184611808565b92915050565b60006020820190508181036000830152611c688184611817565b905092915050565b6000610100820190508181036000830152611c8b818b611884565b90508181036020830152611c9f818a611884565b9050611cae6040830189611c24565b611cbb60608301886117f9565b611cc860808301876117f9565b611cd560a0830186611875565b611ce260c0830185611875565b611cef60e0830184611875565b9998505050505050505050565b600060e0820190508181036000830152611d16818a611884565b90508181036020830152611d2a8189611884565b9050611d396040830188611c24565b611d466060830187611808565b611d536080830186611875565b611d6060a0830185611875565b611d6d60c0830184611875565b98975050505050505050565b60006020820190508181036000830152611d92816118bd565b9050919050565b60006020820190508181036000830152611db281611923565b9050919050565b60006020820190508181036000830152611dd281611963565b9050919050565b60006020820190508181036000830152611df2816119c9565b9050919050565b60006020820190508181036000830152611e1281611a09565b9050919050565b60006020820190508181036000830152611e3281611a49565b9050919050565b60006020820190508181036000830152611e5281611a89565b9050919050565b60006020820190508181036000830152611e7281611aef565b9050919050565b60006020820190508181036000830152611e9281611b2f565b9050919050565b60006020820190508181036000830152611eb281611b95565b9050919050565b60006020820190508181036000830152611ed281611bd5565b9050919050565b6000602082019050611eee6000830184611c24565b92915050565b6000604082019050611f096000830185611c24565b611f166020830184611808565b9392505050565b6000606082019050611f326000830186611c24565b611f3f6020830185611808565b611f4c6040830184611c24565b949350505050565b6000606082019050611f696000830186611c24565b8181036020830152611f7b8185611884565b9050611f8a6040830184611c24565b949350505050565b6000604051905081810181811067ffffffffffffffff82111715611fb957611fb86121f1565b5b8060405250919050565b600067ffffffffffffffff821115611fde57611fdd6121f1565b5b601f19601f8301169050602081019050919050565b6000819050602082019050919050565b600081519050919050565b600081519050919050565b6000602082019050919050565b600082825260208201905092915050565b600082825260208201905092915050565b6000612053826120cc565b915061205e836120cc565b92508282101561207157612070612193565b5b828203905092915050565b6000612087826120ac565b9050919050565b6000612099826120ac565b9050919050565b60008115159050919050565b600073ffffffffffffffffffffffffffffffffffffffff82169050919050565b6000819050919050565b82818337600083830152505050565b60005b838110156121035780820151818401526020810190506120e8565b83811115612112576000848401525b50505050565b6000600282049050600182168061213057607f821691505b60208210811415612144576121436121c2565b5b50919050565b6000612155826120cc565b91507fffffffffffffffffffffffffffffffffffffffffffffffffffffffffffffffff82141561218857612187612193565b5b600182019050919050565b7f4e487b7100000000000000000000000000000000000000000000000000000000600052601160045260246000fd5b7f4e487b7100000000000000000000000000000000000000000000000000000000600052602260045260246000fd5b7f4e487b7100000000000000000000000000000000000000000000000000000000600052604160045260246000fd5b6000601f19601f8301169050919050565b61223a816120cc565b811461224557600080fd5b5056fea26469706673582212208fdb5c0d194ea2f8d88022fe729db5f129dc51c13009484852bf22a58b86227464736f6c63430008000033",
  "immutableReferences": {},
  "source": "// SPDX-License-Identifier: MIT\npragma solidity ^0.8.0;\n\ncontract FreelanceMarketplace {\n    struct Job {\n        string title;\n        string description;\n        uint256 payment;\n        address payable freelancer;\n        address payable creator;\n        bool isComplete;\n        bool isApproved;\n        bool isActive; // Track if the job is still active\n    }\n\n    Job[] public jobs;\n    address public owner;\n    mapping(uint256 => uint256) public escrowBalances; // Track escrow balances for each job\n\n    constructor() {\n        owner = msg.sender;\n    }\n\n    event JobCreated(uint256 jobId, string title, uint256 payment);\n    event JobApplied(uint256 jobId, address freelancer);\n    event JobCompleted(uint256 jobId, address freelancer);\n    event JobApproved(uint256 jobId, address creator);\n    event JobCancelled(uint256 jobId, address creator, uint256 refundedAmount); // New event for job cancellation\n\n    modifier onlyOwner() {\n        require(msg.sender == owner, \"Only owner can call this function\");\n        _;\n    }\n\n    modifier onlyCreator(uint256 _jobId) {\n        require(msg.sender == jobs[_jobId].creator, \"Only the job creator can call this function\");\n        _;\n    }\n\n    modifier onlyFreelancer(uint256 _jobId) {\n        require(msg.sender == jobs[_jobId].freelancer, \"Only assigned freelancer can call this function\");\n        _;\n    }\n\n    function createJob(string memory _title, string memory _description) public payable {\n        require(msg.value > 0, \"Payment must be greater than 0\");\n        \n        Job memory newJob = Job({\n            title: _title,\n            description: _description,\n            payment: msg.value,\n            freelancer: payable(address(0)),\n            creator: payable(msg.sender),\n            isComplete: false,\n            isApproved: false,\n            isActive: true\n        });\n\n        jobs.push(newJob);\n        uint256 jobId = jobs.length - 1;\n        escrowBalances[jobId] = msg.value; // Store payment in escrow\n        \n        emit JobCreated(jobId, _title, msg.value);\n    }\n\n    function applyForJob(uint256 _jobId) public {\n        Job storage job = jobs[_jobId];\n        \n        require(job.isActive, \"Job is no longer active\");\n        require(job.freelancer == address(0), \"Job already taken\");\n        require(msg.sender != job.creator, \"Creator cannot apply for their own job\");\n\n        job.freelancer = payable(msg.sender);\n        emit JobApplied(_jobId, msg.sender);\n    }\n\n    function completeJob(uint256 _jobId) public onlyFreelancer(_jobId) {\n        Job storage job = jobs[_jobId];\n        require(!job.isComplete, \"Job already completed\");\n\n        job.isComplete = true;\n        emit JobCompleted(_jobId, msg.sender);\n    }\n\n    function approveJob(uint256 _jobId) public onlyCreator(_jobId) {\n        Job storage job = jobs[_jobId];\n        require(job.isComplete, \"Job is not yet complete\");\n        require(!job.isApproved, \"Job already approved\");\n\n        job.isApproved = true;\n        uint256 payment = escrowBalances[_jobId];\n        escrowBalances[_jobId] = 0;\n        job.freelancer.transfer(payment); // Transfer payment from escrow to freelancer\n        emit JobApproved(_jobId, msg.sender);\n    }\n\n    function cancelJob(uint256 _jobId) public onlyCreator(_jobId) {\n        Job storage job = jobs[_jobId];\n        require(job.isActive, \"Job is not active\");\n        require(job.freelancer == address(0), \"Cannot cancel job with assigned freelancer\");\n\n        job.isActive = false;\n        uint256 payment = escrowBalances[_jobId];\n        escrowBalances[_jobId] = 0;\n        payable(msg.sender).transfer(payment); // Return payment from escrow to creator\n        emit JobCancelled(_jobId, msg.sender, payment); // Emit cancellation event\n    }\n\n    function jobCount() public view returns (uint256) {\n        return jobs.length;\n    }\n\n    function getJob(uint256 _jobId) public view returns (string memory, string memory, uint256, address, bool, bool, bool) {\n        Job memory job = jobs[_jobId];\n        return (job.title, job.description, job.payment, job.freelancer, job.isComplete, job.isApproved, job.isActive);\n    }\n\n    function getAppliedJobs() public view returns (uint256[] memory) {\n        uint256 appliedJobCount = 0;\n        uint256 totalJobs = jobs.length;\n\n        for (uint256 i = 0; i < totalJobs; i++) {\n            if (jobs[i].freelancer == msg.sender) {\n                appliedJobCount++;\n            }\n        }\n\n        uint256[] memory appliedJobIDs = new uint256[](appliedJobCount);\n        uint256 index = 0;\n\n        for (uint256 i = 0; i < totalJobs; i++) {\n            if (jobs[i].freelancer == msg.sender) {\n                appliedJobIDs[index] = i;\n                index++;\n            }\n        }\n\n        return appliedJobIDs;\n    }\n}\n",
  "sourcePath": "/home/asad/Desktop/Crypto-Freelance-MarketPlace/contracts/FreelanceMarketplace.sol",
  "compiler": {
    "name": "solc",
    "version": "0.8.0+commit.c7dfd78e.Emscripten.clang"
  },
  "schemaVersion": "3.4.16",
  "updatedAt": "2024-10-14T11:42:34.720Z",
  "networkType": "ethereum",
  "devdoc": {
    "kind": "dev",
    "methods": {},
    "version": 1
  },
  "userdoc": {
    "kind": "user",
    "methods": {},
    "version": 1
  }
}