{
  "contractName": "FreelanceMarketplace",
  "abi": [
    {
      "inputs": [],
      "stateMutability": "nonpayable",
      "type": "constructor"
    },
    {
      "anonymous": false,
      "inputs": [
        {
          "indexed": false,
          "internalType": "uint256",
          "name": "jobId",
          "type": "uint256"
        },
        {
          "indexed": false,
          "internalType": "address",
          "name": "freelancer",
          "type": "address"
        }
      ],
      "name": "JobApplied",
      "type": "event"
    },
    {
      "anonymous": false,
      "inputs": [
        {
          "indexed": false,
          "internalType": "uint256",
          "name": "jobId",
          "type": "uint256"
        },
        {
          "indexed": false,
          "internalType": "address",
          "name": "creator",
          "type": "address"
        }
      ],
      "name": "JobApproved",
      "type": "event"
    },
    {
      "anonymous": false,
      "inputs": [
        {
          "indexed": false,
          "internalType": "uint256",
          "name": "jobId",
          "type": "uint256"
        },
        {
          "indexed": false,
          "internalType": "address",
          "name": "creator",
          "type": "address"
        },
        {
          "indexed": false,
          "internalType": "uint256",
          "name": "refundedAmount",
          "type": "uint256"
        }
      ],
      "name": "JobCancelled",
      "type": "event"
    },
    {
      "anonymous": false,
      "inputs": [
        {
          "indexed": false,
          "internalType": "uint256",
          "name": "jobId",
          "type": "uint256"
        },
        {
          "indexed": false,
          "internalType": "address",
          "name": "freelancer",
          "type": "address"
        }
      ],
      "name": "JobCompleted",
      "type": "event"
    },
    {
      "anonymous": false,
      "inputs": [
        {
          "indexed": false,
          "internalType": "uint256",
          "name": "jobId",
          "type": "uint256"
        },
        {
          "indexed": false,
          "internalType": "string",
          "name": "title",
          "type": "string"
        },
        {
          "indexed": false,
          "internalType": "uint256",
          "name": "payment",
          "type": "uint256"
        }
      ],
      "name": "JobCreated",
      "type": "event"
    },
    {
      "inputs": [
        {
          "internalType": "uint256",
          "name": "",
          "type": "uint256"
        }
      ],
      "name": "escrowBalances",
      "outputs": [
        {
          "internalType": "uint256",
          "name": "",
          "type": "uint256"
        }
      ],
      "stateMutability": "view",
      "type": "function",
      "constant": true
    },
    {
      "inputs": [
        {
          "internalType": "uint256",
          "name": "",
          "type": "uint256"
        },
        {
          "internalType": "address",
          "name": "",
          "type": "address"
        }
      ],
      "name": "jobApplications",
      "outputs": [
        {
          "internalType": "bool",
          "name": "",
          "type": "bool"
        }
      ],
      "stateMutability": "view",
      "type": "function",
      "constant": true
    },
    {
      "inputs": [
        {
          "internalType": "uint256",
          "name": "",
          "type": "uint256"
        }
      ],
      "name": "jobs",
      "outputs": [
        {
          "internalType": "string",
          "name": "title",
          "type": "string"
        },
        {
          "internalType": "string",
          "name": "description",
          "type": "string"
        },
        {
          "internalType": "uint256",
          "name": "payment",
          "type": "uint256"
        },
        {
          "internalType": "address payable",
          "name": "freelancer",
          "type": "address"
        },
        {
          "internalType": "address payable",
          "name": "creator",
          "type": "address"
        },
        {
          "internalType": "bool",
          "name": "isComplete",
          "type": "bool"
        },
        {
          "internalType": "bool",
          "name": "isApproved",
          "type": "bool"
        },
        {
          "internalType": "bool",
          "name": "isActive",
          "type": "bool"
        }
      ],
      "stateMutability": "view",
      "type": "function",
      "constant": true
    },
    {
      "inputs": [],
      "name": "owner",
      "outputs": [
        {
          "internalType": "address",
          "name": "",
          "type": "address"
        }
      ],
      "stateMutability": "view",
      "type": "function",
      "constant": true
    },
    {
      "inputs": [
        {
          "internalType": "string",
          "name": "_title",
          "type": "string"
        },
        {
          "internalType": "string",
          "name": "_description",
          "type": "string"
        }
      ],
      "name": "createJob",
      "outputs": [],
      "stateMutability": "payable",
      "type": "function",
      "payable": true
    },
    {
      "inputs": [
        {
          "internalType": "uint256",
          "name": "_jobId",
          "type": "uint256"
        }
      ],
      "name": "applyForJob",
      "outputs": [],
      "stateMutability": "nonpayable",
      "type": "function"
    },
    {
      "inputs": [
        {
          "internalType": "uint256",
          "name": "_jobId",
          "type": "uint256"
        }
      ],
      "name": "completeJob",
      "outputs": [],
      "stateMutability": "nonpayable",
      "type": "function"
    },
    {
      "inputs": [
        {
          "internalType": "uint256",
          "name": "_jobId",
          "type": "uint256"
        }
      ],
      "name": "approveJob",
      "outputs": [],
      "stateMutability": "nonpayable",
      "type": "function"
    },
    {
      "inputs": [
        {
          "internalType": "uint256",
          "name": "_jobId",
          "type": "uint256"
        }
      ],
      "name": "cancelJob",
      "outputs": [],
      "stateMutability": "nonpayable",
      "type": "function"
    },
    {
      "inputs": [],
      "name": "jobCount",
      "outputs": [
        {
          "internalType": "uint256",
          "name": "",
          "type": "uint256"
        }
      ],
      "stateMutability": "view",
      "type": "function",
      "constant": true
    },
    {
      "inputs": [
        {
          "internalType": "uint256",
          "name": "_jobId",
          "type": "uint256"
        }
      ],
      "name": "getJob",
      "outputs": [
        {
          "components": [
            {
              "internalType": "string",
              "name": "title",
              "type": "string"
            },
            {
              "internalType": "string",
              "name": "description",
              "type": "string"
            },
            {
              "internalType": "uint256",
              "name": "payment",
              "type": "uint256"
            },
            {
              "internalType": "address payable",
              "name": "freelancer",
              "type": "address"
            },
            {
              "internalType": "address payable",
              "name": "creator",
              "type": "address"
            },
            {
              "internalType": "bool",
              "name": "isComplete",
              "type": "bool"
            },
            {
              "internalType": "bool",
              "name": "isApproved",
              "type": "bool"
            },
            {
              "internalType": "bool",
              "name": "isActive",
              "type": "bool"
            }
          ],
          "internalType": "struct FreelanceMarketplace.Job",
          "name": "",
          "type": "tuple"
        }
      ],
      "stateMutability": "view",
      "type": "function",
      "constant": true
    },
    {
      "inputs": [],
      "name": "getAppliedJobs",
      "outputs": [
        {
          "internalType": "uint256[]",
          "name": "",
          "type": "uint256[]"
        }
      ],
      "stateMutability": "view",
      "type": "function",
      "constant": true
    }
  ],
  "bytecode": "0x608060405234801561001057600080fd5b5033600160006101000a81548173ffffffffffffffffffffffffffffffffffffffff021916908373ffffffffffffffffffffffffffffffffffffffff16021790555061251c806100616000396000f3fe6080604052600436106100a75760003560e01c80634c5d8a0f116100645780634c5d8a0f146101c65780638da5cb5b146101f1578063a1c0d32f1461021c578063b5f45c7a14610245578063bf22c45714610282578063e0c94ae5146102bf576100a7565b8063180aedf3146100ac5780631dffa3dc146100f05780632b1ed5811461011957806343ebf45a1461013557806348aee51e146101725780634bd23b9e1461019d575b600080fd5b3480156100b857600080fd5b506100d360048036038101906100ce9190611924565b6102e8565b6040516100e7989796959493929190611f41565b60405180910390f35b3480156100fc57600080fd5b5061011760048036038101906101129190611924565b6104b7565b005b610133600480360381019061012e91906118b8565b610796565b005b34801561014157600080fd5b5061015c60048036038101906101579190611924565b610a1c565b604051610169919061214f565b60405180910390f35b34801561017e57600080fd5b50610187610a34565b6040516101949190611f04565b60405180910390f35b3480156101a957600080fd5b506101c460048036038101906101bf9190611924565b610c9e565b005b3480156101d257600080fd5b506101db610ebb565b6040516101e8919061214f565b60405180910390f35b3480156101fd57600080fd5b50610206610ec7565b6040516102139190611ee9565b60405180910390f35b34801561022857600080fd5b50610243600480360381019061023e9190611924565b610eed565b005b34801561025157600080fd5b5061026c6004803603810190610267919061194d565b6110bf565b6040516102799190611f26565b60405180910390f35b34801561028e57600080fd5b506102a960048036038101906102a49190611924565b6110ee565b6040516102b6919061212d565b60405180910390f35b3480156102cb57600080fd5b506102e660048036038101906102e19190611924565b6113c3565b005b600081815481106102f857600080fd5b906000526020600020906005020160009150905080600001805461031b9061239f565b80601f01602080910402602001604051908101604052809291908181526020018280546103479061239f565b80156103945780601f1061036957610100808354040283529160200191610394565b820191906000526020600020905b81548152906001019060200180831161037757829003601f168201915b5050505050908060010180546103a99061239f565b80601f01602080910402602001604051908101604052809291908181526020018280546103d59061239f565b80156104225780601f106103f757610100808354040283529160200191610422565b820191906000526020600020905b81548152906001019060200180831161040557829003601f168201915b5050505050908060020154908060030160009054906101000a900473ffffffffffffffffffffffffffffffffffffffff16908060040160009054906101000a900473ffffffffffffffffffffffffffffffffffffffff16908060040160149054906101000a900460ff16908060040160159054906101000a900460ff16908060040160169054906101000a900460ff16905088565b80600081815481106104f2577f4e487b7100000000000000000000000000000000000000000000000000000000600052603260045260246000fd5b906000526020600020906005020160040160009054906101000a900473ffffffffffffffffffffffffffffffffffffffff1673ffffffffffffffffffffffffffffffffffffffff163373ffffffffffffffffffffffffffffffffffffffff1614610591576040517f08c379a00000000000000000000000000000000000000000000000000000000081526004016105889061200d565b60405180910390fd5b60008083815481106105cc577f4e487b7100000000000000000000000000000000000000000000000000000000600052603260045260246000fd5b906000526020600020906005020190508060040160169054906101000a900460ff1661062d576040517f08c379a00000000000000000000000000000000000000000000000000000000081526004016106249061204d565b60405180910390fd5b600073ffffffffffffffffffffffffffffffffffffffff168160030160009054906101000a900473ffffffffffffffffffffffffffffffffffffffff1673ffffffffffffffffffffffffffffffffffffffff16146106c0576040517f08c379a00000000000000000000000000000000000000000000000000000000081526004016106b7906120ad565b60405180910390fd5b60008160040160166101000a81548160ff021916908315150217905550600060026000858152602001908152602001600020549050600060026000868152602001908152602001600020819055503373ffffffffffffffffffffffffffffffffffffffff166108fc829081150290604051600060405180830381858888f19350505050158015610754573d6000803e3d6000fd5b507fa80c76c474b34cc7af71dec63d733b959fff08f4eb0789e288be5db6b608f94284338360405161078893929190612193565b60405180910390a150505050565b600034116107d9576040517f08c379a00000000000000000000000000000000000000000000000000000000081526004016107d090611fed565b60405180910390fd5b6000604051806101000160405280848152602001838152602001348152602001600073ffffffffffffffffffffffffffffffffffffffff1681526020013373ffffffffffffffffffffffffffffffffffffffff1681526020016000151581526020016000151581526020016001151581525090506000819080600181540180825580915050600190039060005260206000209060050201600090919091909150600082015181600001908051906020019061089592919061170c565b5060208201518160010190805190602001906108b292919061170c565b506040820151816002015560608201518160030160006101000a81548173ffffffffffffffffffffffffffffffffffffffff021916908373ffffffffffffffffffffffffffffffffffffffff16021790555060808201518160040160006101000a81548173ffffffffffffffffffffffffffffffffffffffff021916908373ffffffffffffffffffffffffffffffffffffffff16021790555060a08201518160040160146101000a81548160ff02191690831515021790555060c08201518160040160156101000a81548160ff02191690831515021790555060e08201518160040160166101000a81548160ff0219169083151502179055505050600060016000805490506109c191906122cf565b90503460026000838152602001908152602001600020819055507f3dee1355894338f74293714b178f468bd5d435a12c22fef70a5b56c528957d41818534604051610a0e939291906121ca565b60405180910390a150505050565b60026020528060005260406000206000915090505481565b60606000808080549050905060005b81811015610b0c573373ffffffffffffffffffffffffffffffffffffffff1660008281548110610a9c577f4e487b7100000000000000000000000000000000000000000000000000000000600052603260045260246000fd5b906000526020600020906005020160030160009054906101000a900473ffffffffffffffffffffffffffffffffffffffff1673ffffffffffffffffffffffffffffffffffffffff161415610af9578280610af5906123d1565b9350505b8080610b04906123d1565b915050610a43565b5060008267ffffffffffffffff811115610b4f577f4e487b7100000000000000000000000000000000000000000000000000000000600052604160045260246000fd5b604051908082528060200260200182016040528015610b7d5781602001602082028036833780820191505090505b5090506000805b83811015610c93573373ffffffffffffffffffffffffffffffffffffffff1660008281548110610bdd577f4e487b7100000000000000000000000000000000000000000000000000000000600052603260045260246000fd5b906000526020600020906005020160030160009054906101000a900473ffffffffffffffffffffffffffffffffffffffff1673ffffffffffffffffffffffffffffffffffffffff161415610c805780838381518110610c65577f4e487b7100000000000000000000000000000000000000000000000000000000600052603260045260246000fd5b6020026020010181815250508180610c7c906123d1565b9250505b8080610c8b906123d1565b915050610b84565b508194505050505090565b8060008181548110610cd9577f4e487b7100000000000000000000000000000000000000000000000000000000600052603260045260246000fd5b906000526020600020906005020160040160009054906101000a900473ffffffffffffffffffffffffffffffffffffffff1673ffffffffffffffffffffffffffffffffffffffff163373ffffffffffffffffffffffffffffffffffffffff1614610d78576040517f08c379a0000000000000000000000000000000000000000000000000000000008152600401610d6f9061200d565b60405180910390fd5b6000808381548110610db3577f4e487b7100000000000000000000000000000000000000000000000000000000600052603260045260246000fd5b9060005260206000209060050201905060018160040160156101000a81548160ff021916908315150217905550600060026000858152602001908152602001600020549050600060026000868152602001908152602001600020819055508160030160009054906101000a900473ffffffffffffffffffffffffffffffffffffffff1673ffffffffffffffffffffffffffffffffffffffff166108fc829081150290604051600060405180830381858888f19350505050158015610e7b573d6000803e3d6000fd5b507f672bfedacbff1d20ad166b512468e3a6471d444eb51c81a4b7168a8232481e608433604051610ead92919061216a565b60405180910390a150505050565b60008080549050905090565b600160009054906101000a900473ffffffffffffffffffffffffffffffffffffffff1681565b8060008181548110610f28577f4e487b7100000000000000000000000000000000000000000000000000000000600052603260045260246000fd5b906000526020600020906005020160030160009054906101000a900473ffffffffffffffffffffffffffffffffffffffff1673ffffffffffffffffffffffffffffffffffffffff163373ffffffffffffffffffffffffffffffffffffffff1614610fc7576040517f08c379a0000000000000000000000000000000000000000000000000000000008152600401610fbe90611fcd565b60405180910390fd5b6000808381548110611002577f4e487b7100000000000000000000000000000000000000000000000000000000600052603260045260246000fd5b906000526020600020906005020190508060040160149054906101000a900460ff1615611064576040517f08c379a000000000000000000000000000000000000000000000000000000000815260040161105b9061206d565b60405180910390fd5b60018160040160146101000a81548160ff0219169083151502179055507f16a7286196330eaff0c7db2ec34ead9c6d2d023b356b62ee7ea644c842a84b6783336040516110b292919061216a565b60405180910390a1505050565b60036020528160005260406000206020528060005260406000206000915091509054906101000a900460ff1681565b6110f6611792565b600080549050821061113d576040517f08c379a00000000000000000000000000000000000000000000000000000000081526004016111349061208d565b60405180910390fd5b60008281548110611177577f4e487b7100000000000000000000000000000000000000000000000000000000600052603260045260246000fd5b9060005260206000209060050201604051806101000160405290816000820180546111a19061239f565b80601f01602080910402602001604051908101604052809291908181526020018280546111cd9061239f565b801561121a5780601f106111ef5761010080835404028352916020019161121a565b820191906000526020600020905b8154815290600101906020018083116111fd57829003601f168201915b505050505081526020016001820180546112339061239f565b80601f016020809104026020016040519081016040528092919081815260200182805461125f9061239f565b80156112ac5780601f10611281576101008083540402835291602001916112ac565b820191906000526020600020905b81548152906001019060200180831161128f57829003601f168201915b50505050508152602001600282015481526020016003820160009054906101000a900473ffffffffffffffffffffffffffffffffffffffff1673ffffffffffffffffffffffffffffffffffffffff1673ffffffffffffffffffffffffffffffffffffffff1681526020016004820160009054906101000a900473ffffffffffffffffffffffffffffffffffffffff1673ffffffffffffffffffffffffffffffffffffffff1673ffffffffffffffffffffffffffffffffffffffff1681526020016004820160149054906101000a900460ff161515151581526020016004820160159054906101000a900460ff161515151581526020016004820160169054906101000a900460ff1615151515815250509050919050565b60008082815481106113fe577f4e487b7100000000000000000000000000000000000000000000000000000000600052603260045260246000fd5b906000526020600020906005020190508060040160169054906101000a900460ff1661145f576040517f08c379a0000000000000000000000000000000000000000000000000000000008152600401611456906120cd565b60405180910390fd5b600073ffffffffffffffffffffffffffffffffffffffff168160030160009054906101000a900473ffffffffffffffffffffffffffffffffffffffff1673ffffffffffffffffffffffffffffffffffffffff16146114f2576040517f08c379a00000000000000000000000000000000000000000000000000000000081526004016114e99061202d565b60405180910390fd5b8060040160009054906101000a900473ffffffffffffffffffffffffffffffffffffffff1673ffffffffffffffffffffffffffffffffffffffff163373ffffffffffffffffffffffffffffffffffffffff161415611585576040517f08c379a000000000000000000000000000000000000000000000000000000000815260040161157c9061210d565b60405180910390fd5b6003600083815260200190815260200160002060003373ffffffffffffffffffffffffffffffffffffffff1673ffffffffffffffffffffffffffffffffffffffff16815260200190815260200160002060009054906101000a900460ff1615611623576040517f08c379a000000000000000000000000000000000000000000000000000000000815260040161161a906120ed565b60405180910390fd5b338160030160006101000a81548173ffffffffffffffffffffffffffffffffffffffff021916908373ffffffffffffffffffffffffffffffffffffffff16021790555060016003600084815260200190815260200160002060003373ffffffffffffffffffffffffffffffffffffffff1673ffffffffffffffffffffffffffffffffffffffff16815260200190815260200160002060006101000a81548160ff0219169083151502179055507fffa837d183240a5f25cbd643a8eade702c0c9c3e186c59c7d929e4f1a3438d86823360405161170092919061216a565b60405180910390a15050565b8280546117189061239f565b90600052602060002090601f01602090048101928261173a5760008555611781565b82601f1061175357805160ff1916838001178555611781565b82800160010185558215611781579182015b82811115611780578251825591602001919060010190611765565b5b50905061178e9190611809565b5090565b604051806101000160405280606081526020016060815260200160008152602001600073ffffffffffffffffffffffffffffffffffffffff168152602001600073ffffffffffffffffffffffffffffffffffffffff1681526020016000151581526020016000151581526020016000151581525090565b5b8082111561182257600081600090555060010161180a565b5090565b600061183961183484612239565b612208565b90508281526020810184848401111561185157600080fd5b61185c84828561235d565b509392505050565b600081359050611873816124b8565b92915050565b600082601f83011261188a57600080fd5b813561189a848260208601611826565b91505092915050565b6000813590506118b2816124cf565b92915050565b600080604083850312156118cb57600080fd5b600083013567ffffffffffffffff8111156118e557600080fd5b6118f185828601611879565b925050602083013567ffffffffffffffff81111561190e57600080fd5b61191a85828601611879565b9150509250929050565b60006020828403121561193657600080fd5b6000611944848285016118a3565b91505092915050565b6000806040838503121561196057600080fd5b600061196e858286016118a3565b925050602061197f85828601611864565b9150509250929050565b60006119958383611ecb565b60208301905092915050565b6119aa81612315565b82525050565b6119b981612315565b82525050565b6119c881612303565b82525050565b60006119d982612279565b6119e3818561229c565b93506119ee83612269565b8060005b83811015611a1f578151611a068882611989565b9750611a118361228f565b9250506001810190506119f2565b5085935050505092915050565b611a3581612327565b82525050565b611a4481612327565b82525050565b6000611a5582612284565b611a5f81856122ad565b9350611a6f81856020860161236c565b611a78816124a7565b840191505092915050565b6000611a8e82612284565b611a9881856122be565b9350611aa881856020860161236c565b611ab1816124a7565b840191505092915050565b6000611ac9602f836122be565b91507f4f6e6c792061737369676e656420667265656c616e6365722063616e2063616c60008301527f6c20746869732066756e6374696f6e00000000000000000000000000000000006020830152604082019050919050565b6000611b2f601e836122be565b91507f5061796d656e74206d7573742062652067726561746572207468616e203000006000830152602082019050919050565b6000611b6f602b836122be565b91507f4f6e6c7920746865206a6f622063726561746f722063616e2063616c6c20746860008301527f69732066756e6374696f6e0000000000000000000000000000000000000000006020830152604082019050919050565b6000611bd56011836122be565b91507f4a6f6220616c72656164792074616b656e0000000000000000000000000000006000830152602082019050919050565b6000611c156011836122be565b91507f4a6f62206973206e6f74206163746976650000000000000000000000000000006000830152602082019050919050565b6000611c556015836122be565b91507f4a6f6220616c726561647920636f6d706c6574656400000000000000000000006000830152602082019050919050565b6000611c956015836122be565b91507f4a6f6220494420646f6573206e6f7420657869737400000000000000000000006000830152602082019050919050565b6000611cd5602a836122be565b91507f43616e6e6f742063616e63656c206a6f6220776974682061737369676e65642060008301527f667265656c616e636572000000000000000000000000000000000000000000006020830152604082019050919050565b6000611d3b6017836122be565b91507f4a6f62206973206e6f206c6f6e676572206163746976650000000000000000006000830152602082019050919050565b6000611d7b601c836122be565b91507f416c7265616479206170706c69656420666f722074686973206a6f62000000006000830152602082019050919050565b6000611dbb6026836122be565b91507f43726561746f722063616e6e6f74206170706c7920666f72207468656972206f60008301527f776e206a6f6200000000000000000000000000000000000000000000000000006020830152604082019050919050565b6000610100830160008301518482036000860152611e328282611a4a565b91505060208301518482036020860152611e4c8282611a4a565b9150506040830151611e616040860182611ecb565b506060830151611e7460608601826119a1565b506080830151611e8760808601826119a1565b5060a0830151611e9a60a0860182611a2c565b5060c0830151611ead60c0860182611a2c565b5060e0830151611ec060e0860182611a2c565b508091505092915050565b611ed481612353565b82525050565b611ee381612353565b82525050565b6000602082019050611efe60008301846119bf565b92915050565b60006020820190508181036000830152611f1e81846119ce565b905092915050565b6000602082019050611f3b6000830184611a3b565b92915050565b6000610100820190508181036000830152611f5c818b611a83565b90508181036020830152611f70818a611a83565b9050611f7f6040830189611eda565b611f8c60608301886119b0565b611f9960808301876119b0565b611fa660a0830186611a3b565b611fb360c0830185611a3b565b611fc060e0830184611a3b565b9998505050505050505050565b60006020820190508181036000830152611fe681611abc565b9050919050565b6000602082019050818103600083015261200681611b22565b9050919050565b6000602082019050818103600083015261202681611b62565b9050919050565b6000602082019050818103600083015261204681611bc8565b9050919050565b6000602082019050818103600083015261206681611c08565b9050919050565b6000602082019050818103600083015261208681611c48565b9050919050565b600060208201905081810360008301526120a681611c88565b9050919050565b600060208201905081810360008301526120c681611cc8565b9050919050565b600060208201905081810360008301526120e681611d2e565b9050919050565b6000602082019050818103600083015261210681611d6e565b9050919050565b6000602082019050818103600083015261212681611dae565b9050919050565b600060208201905081810360008301526121478184611e14565b905092915050565b60006020820190506121646000830184611eda565b92915050565b600060408201905061217f6000830185611eda565b61218c60208301846119bf565b9392505050565b60006060820190506121a86000830186611eda565b6121b560208301856119bf565b6121c26040830184611eda565b949350505050565b60006060820190506121df6000830186611eda565b81810360208301526121f18185611a83565b90506122006040830184611eda565b949350505050565b6000604051905081810181811067ffffffffffffffff8211171561222f5761222e612478565b5b8060405250919050565b600067ffffffffffffffff82111561225457612253612478565b5b601f19601f8301169050602081019050919050565b6000819050602082019050919050565b600081519050919050565b600081519050919050565b6000602082019050919050565b600082825260208201905092915050565b600082825260208201905092915050565b600082825260208201905092915050565b60006122da82612353565b91506122e583612353565b9250828210156122f8576122f761241a565b5b828203905092915050565b600061230e82612333565b9050919050565b600061232082612333565b9050919050565b60008115159050919050565b600073ffffffffffffffffffffffffffffffffffffffff82169050919050565b6000819050919050565b82818337600083830152505050565b60005b8381101561238a57808201518184015260208101905061236f565b83811115612399576000848401525b50505050565b600060028204905060018216806123b757607f821691505b602082108114156123cb576123ca612449565b5b50919050565b60006123dc82612353565b91507fffffffffffffffffffffffffffffffffffffffffffffffffffffffffffffffff82141561240f5761240e61241a565b5b600182019050919050565b7f4e487b7100000000000000000000000000000000000000000000000000000000600052601160045260246000fd5b7f4e487b7100000000000000000000000000000000000000000000000000000000600052602260045260246000fd5b7f4e487b7100000000000000000000000000000000000000000000000000000000600052604160045260246000fd5b6000601f19601f8301169050919050565b6124c181612303565b81146124cc57600080fd5b50565b6124d881612353565b81146124e357600080fd5b5056fea2646970667358221220c19fb88f56f0b5abecf61e3ebea1b047008508772dc2c1cb4e65f184bd6e913a64736f6c63430008000033",
  "immutableReferences": {},
  "source": "// SPDX-License-Identifier: MIT\npragma solidity ^0.8.0;\n\ncontract FreelanceMarketplace {\n    struct Job {\n        string title;\n        string description;\n        uint256 payment;\n        address payable freelancer;\n        address payable creator;\n        bool isComplete;\n        bool isApproved;\n        bool isActive; // Track if the job is still active\n    }\n\n    Job[] public jobs;\n    address public owner;\n    mapping(uint256 => uint256) public escrowBalances; // Track escrow balances for each job\n    mapping(uint256 => mapping(address => bool)) public jobApplications; // Track job applications\n\n    constructor() {\n        owner = msg.sender;\n    }\n\n    event JobCreated(uint256 jobId, string title, uint256 payment);\n    event JobApplied(uint256 jobId, address freelancer);\n    event JobCompleted(uint256 jobId, address freelancer);\n    event JobApproved(uint256 jobId, address creator);\n    event JobCancelled(uint256 jobId, address creator, uint256 refundedAmount); // New event for job cancellation\n\n    modifier onlyOwner() {\n        require(msg.sender == owner, \"Only owner can call this function\");\n        _;\n    }\n\n    modifier onlyCreator(uint256 _jobId) {\n        require(msg.sender == jobs[_jobId].creator, \"Only the job creator can call this function\");\n        _;\n    }\n\n    modifier onlyFreelancer(uint256 _jobId) {\n        require(msg.sender == jobs[_jobId].freelancer, \"Only assigned freelancer can call this function\");\n        _;\n    }\n\n    function createJob(string memory _title, string memory _description) public payable {\n        require(msg.value > 0, \"Payment must be greater than 0\");\n        \n        Job memory newJob = Job({\n            title: _title,\n            description: _description,\n            payment: msg.value,\n            freelancer: payable(address(0)),\n            creator: payable(msg.sender),\n            isComplete: false,\n            isApproved: false,\n            isActive: true\n        });\n\n        jobs.push(newJob);\n        uint256 jobId = jobs.length - 1;\n        escrowBalances[jobId] = msg.value; // Store payment in escrow\n        \n        emit JobCreated(jobId, _title, msg.value);\n    }\n\n    function applyForJob(uint256 _jobId) public {\n        Job storage job = jobs[_jobId];\n        \n        require(job.isActive, \"Job is no longer active\");\n        require(job.freelancer == address(0), \"Job already taken\");\n        require(msg.sender != job.creator, \"Creator cannot apply for their own job\");\n        require(!jobApplications[_jobId][msg.sender], \"Already applied for this job\");\n\n        job.freelancer = payable(msg.sender); // Assign freelancer to the job\n        jobApplications[_jobId][msg.sender] = true; // Mark as applied\n        emit JobApplied(_jobId, msg.sender);\n    }\n\n    function completeJob(uint256 _jobId) public onlyFreelancer(_jobId) {\n        Job storage job = jobs[_jobId];\n        require(!job.isComplete, \"Job already completed\");\n\n        job.isComplete = true;\n        emit JobCompleted(_jobId, msg.sender);\n    }\n\n    function approveJob(uint256 _jobId) public onlyCreator(_jobId) {\n        Job storage job = jobs[_jobId];\n\n        job.isApproved = true;\n        uint256 payment = escrowBalances[_jobId];\n        escrowBalances[_jobId] = 0;\n        job.freelancer.transfer(payment); // Transfer payment from escrow to freelancer\n        emit JobApproved(_jobId, msg.sender);\n    }\n\n    function cancelJob(uint256 _jobId) public onlyCreator(_jobId) {\n        Job storage job = jobs[_jobId];\n        require(job.isActive, \"Job is not active\");\n        require(job.freelancer == address(0), \"Cannot cancel job with assigned freelancer\");\n\n        job.isActive = false;\n        uint256 payment = escrowBalances[_jobId];\n        escrowBalances[_jobId] = 0;\n        payable(msg.sender).transfer(payment); // Return payment from escrow to creator\n        emit JobCancelled(_jobId, msg.sender, payment); // Emit cancellation event\n    }\n\n    function jobCount() public view returns (uint256) {\n        return jobs.length;\n    }\n\n    function getJob(uint256 _jobId) public view returns (Job memory) {\n    require(_jobId < jobs.length, \"Job ID does not exist\"); // Ensure job ID is valid\n    return jobs[_jobId]; // Return the existing job directly\n}\n    function getAppliedJobs() public view returns (uint256[] memory) {\n        uint256 appliedJobCount = 0;\n        uint256 totalJobs = jobs.length;\n\n        for (uint256 i = 0; i < totalJobs; i++) {\n            if (jobs[i].freelancer == msg.sender) {\n                appliedJobCount++;\n            }\n        }\n\n        uint256[] memory appliedJobIDs = new uint256[](appliedJobCount);\n        uint256 index = 0;\n\n        for (uint256 i = 0; i < totalJobs; i++) {\n            if (jobs[i].freelancer == msg.sender) {\n                appliedJobIDs[index] = i;\n                index++;\n            }\n        }\n\n        return appliedJobIDs;\n    }\n}\n",
  "sourcePath": "/home/asad/Desktop/Crypto-Freelance-MarketPlace/contracts/FreelanceMarketplace.sol",
  "compiler": {
    "name": "solc",
    "version": "0.8.0+commit.c7dfd78e.Emscripten.clang"
  },
  "schemaVersion": "3.4.16",
  "updatedAt": "2024-10-16T08:20:48.126Z",
  "networkType": "ethereum",
  "devdoc": {
    "kind": "dev",
    "methods": {},
    "version": 1
  },
  "userdoc": {
    "kind": "user",
    "methods": {},
    "version": 1
  }
}